{
  "contractName": "FastFood",
  "abi": [
    {
      "inputs": [
        {
          "internalType": "address",
          "name": "_dao",
          "type": "address"
        }
      ],
      "stateMutability": "nonpayable",
      "type": "constructor"
    },
    {
      "anonymous": false,
      "inputs": [
        {
          "indexed": true,
          "internalType": "address",
          "name": "owner",
          "type": "address"
        },
        {
          "indexed": true,
          "internalType": "address",
          "name": "spender",
          "type": "address"
        },
        {
          "indexed": false,
          "internalType": "uint256",
          "name": "value",
          "type": "uint256"
        }
      ],
      "name": "Approval",
      "type": "event"
    },
    {
      "anonymous": false,
      "inputs": [
        {
          "indexed": true,
          "internalType": "address",
          "name": "previousOwner",
          "type": "address"
        },
        {
          "indexed": true,
          "internalType": "address",
          "name": "newOwner",
          "type": "address"
        }
      ],
      "name": "OwnershipTransferred",
      "type": "event"
    },
    {
      "anonymous": false,
      "inputs": [
        {
          "indexed": true,
          "internalType": "bytes32",
          "name": "role",
          "type": "bytes32"
        },
        {
          "indexed": true,
          "internalType": "bytes32",
          "name": "previousAdminRole",
          "type": "bytes32"
        },
        {
          "indexed": true,
          "internalType": "bytes32",
          "name": "newAdminRole",
          "type": "bytes32"
        }
      ],
      "name": "RoleAdminChanged",
      "type": "event"
    },
    {
      "anonymous": false,
      "inputs": [
        {
          "indexed": true,
          "internalType": "bytes32",
          "name": "role",
          "type": "bytes32"
        },
        {
          "indexed": true,
          "internalType": "address",
          "name": "account",
          "type": "address"
        },
        {
          "indexed": true,
          "internalType": "address",
          "name": "sender",
          "type": "address"
        }
      ],
      "name": "RoleGranted",
      "type": "event"
    },
    {
      "anonymous": false,
      "inputs": [
        {
          "indexed": true,
          "internalType": "bytes32",
          "name": "role",
          "type": "bytes32"
        },
        {
          "indexed": true,
          "internalType": "address",
          "name": "account",
          "type": "address"
        },
        {
          "indexed": true,
          "internalType": "address",
          "name": "sender",
          "type": "address"
        }
      ],
      "name": "RoleRevoked",
      "type": "event"
    },
    {
      "anonymous": false,
      "inputs": [
        {
          "indexed": true,
          "internalType": "address",
          "name": "from",
          "type": "address"
        },
        {
          "indexed": true,
          "internalType": "address",
          "name": "to",
          "type": "address"
        },
        {
          "indexed": false,
          "internalType": "uint256",
          "name": "value",
          "type": "uint256"
        }
      ],
      "name": "Transfer",
      "type": "event"
    },
    {
      "inputs": [],
      "name": "BURNER_ROLE",
      "outputs": [
        {
          "internalType": "bytes32",
          "name": "",
          "type": "bytes32"
        }
      ],
      "stateMutability": "view",
      "type": "function"
    },
    {
      "inputs": [],
      "name": "DEFAULT_ADMIN_ROLE",
      "outputs": [
        {
          "internalType": "bytes32",
          "name": "",
          "type": "bytes32"
        }
      ],
      "stateMutability": "view",
      "type": "function"
    },
    {
      "inputs": [],
      "name": "MINTER_ROLE",
      "outputs": [
        {
          "internalType": "bytes32",
          "name": "",
          "type": "bytes32"
        }
      ],
      "stateMutability": "view",
      "type": "function"
    },
    {
      "inputs": [
        {
          "internalType": "address",
          "name": "owner",
          "type": "address"
        },
        {
          "internalType": "address",
          "name": "spender",
          "type": "address"
        }
      ],
      "name": "allowance",
      "outputs": [
        {
          "internalType": "uint256",
          "name": "",
          "type": "uint256"
        }
      ],
      "stateMutability": "view",
      "type": "function"
    },
    {
      "inputs": [
        {
          "internalType": "address",
          "name": "spender",
          "type": "address"
        },
        {
          "internalType": "uint256",
          "name": "amount",
          "type": "uint256"
        }
      ],
      "name": "approve",
      "outputs": [
        {
          "internalType": "bool",
          "name": "",
          "type": "bool"
        }
      ],
      "stateMutability": "nonpayable",
      "type": "function"
    },
    {
      "inputs": [
        {
          "internalType": "address",
          "name": "account",
          "type": "address"
        }
      ],
      "name": "balanceOf",
      "outputs": [
        {
          "internalType": "uint256",
          "name": "",
          "type": "uint256"
        }
      ],
      "stateMutability": "view",
      "type": "function"
    },
    {
      "inputs": [
        {
          "internalType": "address",
          "name": "from",
          "type": "address"
        },
        {
          "internalType": "uint256",
          "name": "amount",
          "type": "uint256"
        }
      ],
      "name": "burn",
      "outputs": [],
      "stateMutability": "nonpayable",
      "type": "function"
    },
    {
      "inputs": [],
      "name": "cap",
      "outputs": [
        {
          "internalType": "uint256",
          "name": "",
          "type": "uint256"
        }
      ],
      "stateMutability": "view",
      "type": "function"
    },
    {
      "inputs": [],
      "name": "decimals",
      "outputs": [
        {
          "internalType": "uint8",
          "name": "",
          "type": "uint8"
        }
      ],
      "stateMutability": "view",
      "type": "function"
    },
    {
      "inputs": [
        {
          "internalType": "address",
          "name": "spender",
          "type": "address"
        },
        {
          "internalType": "uint256",
          "name": "subtractedValue",
          "type": "uint256"
        }
      ],
      "name": "decreaseAllowance",
      "outputs": [
        {
          "internalType": "bool",
          "name": "",
          "type": "bool"
        }
      ],
      "stateMutability": "nonpayable",
      "type": "function"
    },
    {
      "inputs": [
        {
          "internalType": "bytes32",
          "name": "role",
          "type": "bytes32"
        }
      ],
      "name": "getRoleAdmin",
      "outputs": [
        {
          "internalType": "bytes32",
          "name": "",
          "type": "bytes32"
        }
      ],
      "stateMutability": "view",
      "type": "function"
    },
    {
      "inputs": [
        {
          "internalType": "bytes32",
          "name": "role",
          "type": "bytes32"
        },
        {
          "internalType": "address",
          "name": "account",
          "type": "address"
        }
      ],
      "name": "grantRole",
      "outputs": [],
      "stateMutability": "nonpayable",
      "type": "function"
    },
    {
      "inputs": [
        {
          "internalType": "bytes32",
          "name": "role",
          "type": "bytes32"
        },
        {
          "internalType": "address",
          "name": "account",
          "type": "address"
        }
      ],
      "name": "hasRole",
      "outputs": [
        {
          "internalType": "bool",
          "name": "",
          "type": "bool"
        }
      ],
      "stateMutability": "view",
      "type": "function"
    },
    {
      "inputs": [
        {
          "internalType": "address",
          "name": "spender",
          "type": "address"
        },
        {
          "internalType": "uint256",
          "name": "addedValue",
          "type": "uint256"
        }
      ],
      "name": "increaseAllowance",
      "outputs": [
        {
          "internalType": "bool",
          "name": "",
          "type": "bool"
        }
      ],
      "stateMutability": "nonpayable",
      "type": "function"
    },
    {
      "inputs": [
        {
          "internalType": "address",
          "name": "to",
          "type": "address"
        },
        {
          "internalType": "uint256",
          "name": "amount",
          "type": "uint256"
        }
      ],
      "name": "mint",
      "outputs": [],
      "stateMutability": "nonpayable",
      "type": "function"
    },
    {
      "inputs": [],
      "name": "name",
      "outputs": [
        {
          "internalType": "string",
          "name": "",
          "type": "string"
        }
      ],
      "stateMutability": "view",
      "type": "function"
    },
    {
      "inputs": [],
      "name": "owner",
      "outputs": [
        {
          "internalType": "address",
          "name": "",
          "type": "address"
        }
      ],
      "stateMutability": "view",
      "type": "function"
    },
    {
      "inputs": [],
      "name": "renounceOwnership",
      "outputs": [],
      "stateMutability": "nonpayable",
      "type": "function"
    },
    {
      "inputs": [
        {
          "internalType": "bytes32",
          "name": "role",
          "type": "bytes32"
        },
        {
          "internalType": "address",
          "name": "account",
          "type": "address"
        }
      ],
      "name": "renounceRole",
      "outputs": [],
      "stateMutability": "nonpayable",
      "type": "function"
    },
    {
      "inputs": [
        {
          "internalType": "bytes32",
          "name": "role",
          "type": "bytes32"
        },
        {
          "internalType": "address",
          "name": "account",
          "type": "address"
        }
      ],
      "name": "revokeRole",
      "outputs": [],
      "stateMutability": "nonpayable",
      "type": "function"
    },
    {
      "inputs": [
        {
          "internalType": "bytes4",
          "name": "interfaceId",
          "type": "bytes4"
        }
      ],
      "name": "supportsInterface",
      "outputs": [
        {
          "internalType": "bool",
          "name": "",
          "type": "bool"
        }
      ],
      "stateMutability": "view",
      "type": "function"
    },
    {
      "inputs": [],
      "name": "symbol",
      "outputs": [
        {
          "internalType": "string",
          "name": "",
          "type": "string"
        }
      ],
      "stateMutability": "view",
      "type": "function"
    },
    {
      "inputs": [],
      "name": "totalSupply",
      "outputs": [
        {
          "internalType": "uint256",
          "name": "",
          "type": "uint256"
        }
      ],
      "stateMutability": "view",
      "type": "function"
    },
    {
      "inputs": [
        {
          "internalType": "address",
          "name": "to",
          "type": "address"
        },
        {
          "internalType": "uint256",
          "name": "amount",
          "type": "uint256"
        }
      ],
      "name": "transfer",
      "outputs": [
        {
          "internalType": "bool",
          "name": "",
          "type": "bool"
        }
      ],
      "stateMutability": "nonpayable",
      "type": "function"
    },
    {
      "inputs": [
        {
          "internalType": "address",
          "name": "from",
          "type": "address"
        },
        {
          "internalType": "address",
          "name": "to",
          "type": "address"
        },
        {
          "internalType": "uint256",
          "name": "amount",
          "type": "uint256"
        }
      ],
      "name": "transferFrom",
      "outputs": [
        {
          "internalType": "bool",
          "name": "",
          "type": "bool"
        }
      ],
      "stateMutability": "nonpayable",
      "type": "function"
    },
    {
      "inputs": [
        {
          "internalType": "address",
          "name": "newOwner",
          "type": "address"
        }
      ],
      "name": "transferOwnership",
      "outputs": [],
      "stateMutability": "nonpayable",
      "type": "function"
    }
  ],
  "bytecode": "0x60a06040523480156200001157600080fd5b506040516200370b3803806200370b833981810160405281019062000037919062000771565b6040518060400160405280600881526020017f46617374466f6f640000000000000000000000000000000000000000000000008152506040518060400160405280600581526020017f46464f4f440000000000000000000000000000000000000000000000000000008152506a52b7d2dcc80cd2e4000000838184848160039080519060200190620000cb92919062000657565b508060049080519060200190620000e492919062000657565b505050600081116200012d576040517f08c379a0000000000000000000000000000000000000000000000000000000008152600401620001249062000804565b60405180910390fd5b806080818152505050620001566200014a620001ca60201b60201c565b620001d260201b60201c565b6200016b6000801b336200029860201b60201c565b620001806000801b826200029860201b60201c565b50505050620001c38162000199620002ae60201b60201c565b600a620001a79190620009c0565b62989680620001b7919062000a11565b620002b760201b60201c565b5062000c46565b600033905090565b6000600560009054906101000a900473ffffffffffffffffffffffffffffffffffffffff16905081600560006101000a81548173ffffffffffffffffffffffffffffffffffffffff021916908373ffffffffffffffffffffffffffffffffffffffff1602179055508173ffffffffffffffffffffffffffffffffffffffff168173ffffffffffffffffffffffffffffffffffffffff167f8be0079c531659141344cd1fd0a4f28419497f9722a3daafe3b4186f6b6457e060405160405180910390a35050565b620002aa8282620002d260201b60201c565b5050565b60006012905090565b620002ce8282620003c460201b62000cb91760201c565b5050565b620002e482826200045560201b60201c565b620003c05760016006600084815260200190815260200160002060000160008373ffffffffffffffffffffffffffffffffffffffff1673ffffffffffffffffffffffffffffffffffffffff16815260200190815260200160002060006101000a81548160ff02191690831515021790555062000365620001ca60201b60201c565b73ffffffffffffffffffffffffffffffffffffffff168173ffffffffffffffffffffffffffffffffffffffff16837f2f8788117e7eff1d82e926ec794901d17c78024a50270940304540a733656f0d60405160405180910390a45b5050565b620003d4620004c060201b60201c565b81620003ea620004ca60201b620006621760201c565b620003f6919062000a72565b11156200043a576040517f08c379a0000000000000000000000000000000000000000000000000000000008152600401620004319062000b1f565b60405180910390fd5b620004518282620004d460201b62000d231760201c565b5050565b60006006600084815260200190815260200160002060000160008373ffffffffffffffffffffffffffffffffffffffff1673ffffffffffffffffffffffffffffffffffffffff16815260200190815260200160002060009054906101000a900460ff16905092915050565b6000608051905090565b6000600254905090565b600073ffffffffffffffffffffffffffffffffffffffff168273ffffffffffffffffffffffffffffffffffffffff16141562000547576040517f08c379a00000000000000000000000000000000000000000000000000000000081526004016200053e9062000b91565b60405180910390fd5b6200055b600083836200064d60201b60201c565b80600260008282546200056f919062000a72565b92505081905550806000808473ffffffffffffffffffffffffffffffffffffffff1673ffffffffffffffffffffffffffffffffffffffff1681526020019081526020016000206000828254620005c6919062000a72565b925050819055508173ffffffffffffffffffffffffffffffffffffffff16600073ffffffffffffffffffffffffffffffffffffffff167fddf252ad1be2c89b69c2b068fc378daa952ba7f163c4a11628f55a4df523b3ef836040516200062d919062000bc4565b60405180910390a362000649600083836200065260201b60201c565b5050565b505050565b505050565b828054620006659062000c10565b90600052602060002090601f016020900481019282620006895760008555620006d5565b82601f10620006a457805160ff1916838001178555620006d5565b82800160010185558215620006d5579182015b82811115620006d4578251825591602001919060010190620006b7565b5b509050620006e49190620006e8565b5090565b5b8082111562000703576000816000905550600101620006e9565b5090565b600080fd5b600073ffffffffffffffffffffffffffffffffffffffff82169050919050565b600062000739826200070c565b9050919050565b6200074b816200072c565b81146200075757600080fd5b50565b6000815190506200076b8162000740565b92915050565b6000602082840312156200078a576200078962000707565b5b60006200079a848285016200075a565b91505092915050565b600082825260208201905092915050565b7f45524332304361707065643a2063617020697320300000000000000000000000600082015250565b6000620007ec601583620007a3565b9150620007f982620007b4565b602082019050919050565b600060208201905081810360008301526200081f81620007dd565b9050919050565b7f4e487b7100000000000000000000000000000000000000000000000000000000600052601160045260246000fd5b60008160011c9050919050565b6000808291508390505b6001851115620008b4578086048111156200088c576200088b62000826565b5b60018516156200089c5780820291505b8081029050620008ac8562000855565b94506200086c565b94509492505050565b600082620008cf5760019050620009a2565b81620008df5760009050620009a2565b8160018114620008f85760028114620009035762000939565b6001915050620009a2565b60ff84111562000918576200091762000826565b5b8360020a91508482111562000932576200093162000826565b5b50620009a2565b5060208310610133831016604e8410600b8410161715620009735782820a9050838111156200096d576200096c62000826565b5b620009a2565b62000982848484600162000862565b925090508184048111156200099c576200099b62000826565b5b81810290505b9392505050565b6000819050919050565b600060ff82169050919050565b6000620009cd82620009a9565b9150620009da83620009b3565b925062000a097fffffffffffffffffffffffffffffffffffffffffffffffffffffffffffffffff8484620008bd565b905092915050565b600062000a1e82620009a9565b915062000a2b83620009a9565b9250817fffffffffffffffffffffffffffffffffffffffffffffffffffffffffffffffff048311821515161562000a675762000a6662000826565b5b828202905092915050565b600062000a7f82620009a9565b915062000a8c83620009a9565b9250827fffffffffffffffffffffffffffffffffffffffffffffffffffffffffffffffff0382111562000ac45762000ac362000826565b5b828201905092915050565b7f45524332304361707065643a2063617020657863656564656400000000000000600082015250565b600062000b07601983620007a3565b915062000b148262000acf565b602082019050919050565b6000602082019050818103600083015262000b3a8162000af8565b9050919050565b7f45524332303a206d696e7420746f20746865207a65726f206164647265737300600082015250565b600062000b79601f83620007a3565b915062000b868262000b41565b602082019050919050565b6000602082019050818103600083015262000bac8162000b6a565b9050919050565b62000bbe81620009a9565b82525050565b600060208201905062000bdb600083018462000bb3565b92915050565b7f4e487b7100000000000000000000000000000000000000000000000000000000600052602260045260246000fd5b6000600282049050600182168062000c2957607f821691505b6020821081141562000c405762000c3f62000be1565b5b50919050565b608051612aa962000c62600039600061070d0152612aa96000f3fe608060405234801561001057600080fd5b506004361061018e5760003560e01c806370a08231116100de578063a217fddf11610097578063d539139311610071578063d5391393146104ad578063d547741f146104cb578063dd62ed3e146104e7578063f2fde38b146105175761018e565b8063a217fddf1461042f578063a457c2d71461044d578063a9059cbb1461047d5761018e565b806370a082311461036d578063715018a61461039d5780638da5cb5b146103a757806391d14854146103c557806395d89b41146103f55780639dc29fac146104135761018e565b8063282c51f31161014b578063355274ea11610125578063355274ea146102e757806336568abe14610305578063395093511461032157806340c10f19146103515761018e565b8063282c51f31461028f5780632f2ff15d146102ad578063313ce567146102c95761018e565b806301ffc9a71461019357806306fdde03146101c3578063095ea7b3146101e157806318160ddd1461021157806323b872dd1461022f578063248a9ca31461025f575b600080fd5b6101ad60048036038101906101a89190611b8f565b610533565b6040516101ba9190611bd7565b60405180910390f35b6101cb6105ad565b6040516101d89190611c8b565b60405180910390f35b6101fb60048036038101906101f69190611d41565b61063f565b6040516102089190611bd7565b60405180910390f35b610219610662565b6040516102269190611d90565b60405180910390f35b61024960048036038101906102449190611dab565b61066c565b6040516102569190611bd7565b60405180910390f35b61027960048036038101906102749190611e34565b61069b565b6040516102869190611e70565b60405180910390f35b6102976106bb565b6040516102a49190611e70565b60405180910390f35b6102c760048036038101906102c29190611e8b565b6106df565b005b6102d1610700565b6040516102de9190611ee7565b60405180910390f35b6102ef610709565b6040516102fc9190611d90565b60405180910390f35b61031f600480360381019061031a9190611e8b565b610731565b005b61033b60048036038101906103369190611d41565b6107b4565b6040516103489190611bd7565b60405180910390f35b61036b60048036038101906103669190611d41565b6107eb565b005b61038760048036038101906103829190611f02565b610824565b6040516103949190611d90565b60405180910390f35b6103a561086c565b005b6103af6108f4565b6040516103bc9190611f3e565b60405180910390f35b6103df60048036038101906103da9190611e8b565b61091e565b6040516103ec9190611bd7565b60405180910390f35b6103fd610989565b60405161040a9190611c8b565b60405180910390f35b61042d60048036038101906104289190611d41565b610a1b565b005b610437610a54565b6040516104449190611e70565b60405180910390f35b61046760048036038101906104629190611d41565b610a5b565b6040516104749190611bd7565b60405180910390f35b61049760048036038101906104929190611d41565b610ad2565b6040516104a49190611bd7565b60405180910390f35b6104b5610af5565b6040516104c29190611e70565b60405180910390f35b6104e560048036038101906104e09190611e8b565b610b19565b005b61050160048036038101906104fc9190611f59565b610b3a565b60405161050e9190611d90565b60405180910390f35b610531600480360381019061052c9190611f02565b610bc1565b005b60007f7965db0b000000000000000000000000000000000000000000000000000000007bffffffffffffffffffffffffffffffffffffffffffffffffffffffff1916827bffffffffffffffffffffffffffffffffffffffffffffffffffffffff191614806105a657506105a582610e83565b5b9050919050565b6060600380546105bc90611fc8565b80601f01602080910402602001604051908101604052809291908181526020018280546105e890611fc8565b80156106355780601f1061060a57610100808354040283529160200191610635565b820191906000526020600020905b81548152906001019060200180831161061857829003601f168201915b5050505050905090565b60008061064a610eed565b9050610657818585610ef5565b600191505092915050565b6000600254905090565b600080610677610eed565b90506106848582856110c0565b61068f85858561114c565b60019150509392505050565b600060066000838152602001908152602001600020600101549050919050565b7f3c11d16cbaffd01df69ce1c404f6340ee057498f5f00246190ea54220576a84881565b6106e88261069b565b6106f1816113cd565b6106fb83836113e1565b505050565b60006012905090565b60007f0000000000000000000000000000000000000000000000000000000000000000905090565b610739610eed565b73ffffffffffffffffffffffffffffffffffffffff168173ffffffffffffffffffffffffffffffffffffffff16146107a6576040517f08c379a000000000000000000000000000000000000000000000000000000000815260040161079d9061206c565b60405180910390fd5b6107b082826114c2565b5050565b6000806107bf610eed565b90506107e08185856107d18589610b3a565b6107db91906120bb565b610ef5565b600191505092915050565b7f9f2df0fed2c77648de5860a4cc508cd0818c85b8b8a1ab4ceeef8d981c8956a6610815816113cd565b61081f83836115a4565b505050565b60008060008373ffffffffffffffffffffffffffffffffffffffff1673ffffffffffffffffffffffffffffffffffffffff168152602001908152602001600020549050919050565b610874610eed565b73ffffffffffffffffffffffffffffffffffffffff166108926108f4565b73ffffffffffffffffffffffffffffffffffffffff16146108e8576040517f08c379a00000000000000000000000000000000000000000000000000000000081526004016108df9061215d565b60405180910390fd5b6108f260006115b2565b565b6000600560009054906101000a900473ffffffffffffffffffffffffffffffffffffffff16905090565b60006006600084815260200190815260200160002060000160008373ffffffffffffffffffffffffffffffffffffffff1673ffffffffffffffffffffffffffffffffffffffff16815260200190815260200160002060009054906101000a900460ff16905092915050565b60606004805461099890611fc8565b80601f01602080910402602001604051908101604052809291908181526020018280546109c490611fc8565b8015610a115780601f106109e657610100808354040283529160200191610a11565b820191906000526020600020905b8154815290600101906020018083116109f457829003601f168201915b5050505050905090565b7f3c11d16cbaffd01df69ce1c404f6340ee057498f5f00246190ea54220576a848610a45816113cd565b610a4f8383611678565b505050565b6000801b81565b600080610a66610eed565b90506000610a748286610b3a565b905083811015610ab9576040517f08c379a0000000000000000000000000000000000000000000000000000000008152600401610ab0906121ef565b60405180910390fd5b610ac68286868403610ef5565b60019250505092915050565b600080610add610eed565b9050610aea81858561114c565b600191505092915050565b7f9f2df0fed2c77648de5860a4cc508cd0818c85b8b8a1ab4ceeef8d981c8956a681565b610b228261069b565b610b2b816113cd565b610b3583836114c2565b505050565b6000600160008473ffffffffffffffffffffffffffffffffffffffff1673ffffffffffffffffffffffffffffffffffffffff16815260200190815260200160002060008373ffffffffffffffffffffffffffffffffffffffff1673ffffffffffffffffffffffffffffffffffffffff16815260200190815260200160002054905092915050565b610bc9610eed565b73ffffffffffffffffffffffffffffffffffffffff16610be76108f4565b73ffffffffffffffffffffffffffffffffffffffff1614610c3d576040517f08c379a0000000000000000000000000000000000000000000000000000000008152600401610c349061215d565b60405180910390fd5b600073ffffffffffffffffffffffffffffffffffffffff168173ffffffffffffffffffffffffffffffffffffffff161415610cad576040517f08c379a0000000000000000000000000000000000000000000000000000000008152600401610ca490612281565b60405180910390fd5b610cb6816115b2565b50565b610cc1610709565b81610cca610662565b610cd491906120bb565b1115610d15576040517f08c379a0000000000000000000000000000000000000000000000000000000008152600401610d0c906122ed565b60405180910390fd5b610d1f8282610d23565b5050565b600073ffffffffffffffffffffffffffffffffffffffff168273ffffffffffffffffffffffffffffffffffffffff161415610d93576040517f08c379a0000000000000000000000000000000000000000000000000000000008152600401610d8a90612359565b60405180910390fd5b610d9f6000838361184f565b8060026000828254610db191906120bb565b92505081905550806000808473ffffffffffffffffffffffffffffffffffffffff1673ffffffffffffffffffffffffffffffffffffffff1681526020019081526020016000206000828254610e0691906120bb565b925050819055508173ffffffffffffffffffffffffffffffffffffffff16600073ffffffffffffffffffffffffffffffffffffffff167fddf252ad1be2c89b69c2b068fc378daa952ba7f163c4a11628f55a4df523b3ef83604051610e6b9190611d90565b60405180910390a3610e7f60008383611854565b5050565b60007f01ffc9a7000000000000000000000000000000000000000000000000000000007bffffffffffffffffffffffffffffffffffffffffffffffffffffffff1916827bffffffffffffffffffffffffffffffffffffffffffffffffffffffff1916149050919050565b600033905090565b600073ffffffffffffffffffffffffffffffffffffffff168373ffffffffffffffffffffffffffffffffffffffff161415610f65576040517f08c379a0000000000000000000000000000000000000000000000000000000008152600401610f5c906123eb565b60405180910390fd5b600073ffffffffffffffffffffffffffffffffffffffff168273ffffffffffffffffffffffffffffffffffffffff161415610fd5576040517f08c379a0000000000000000000000000000000000000000000000000000000008152600401610fcc9061247d565b60405180910390fd5b80600160008573ffffffffffffffffffffffffffffffffffffffff1673ffffffffffffffffffffffffffffffffffffffff16815260200190815260200160002060008473ffffffffffffffffffffffffffffffffffffffff1673ffffffffffffffffffffffffffffffffffffffff168152602001908152602001600020819055508173ffffffffffffffffffffffffffffffffffffffff168373ffffffffffffffffffffffffffffffffffffffff167f8c5be1e5ebec7d5bd14f71427d1e84f3dd0314c0f7b2291e5b200ac8c7c3b925836040516110b39190611d90565b60405180910390a3505050565b60006110cc8484610b3a565b90507fffffffffffffffffffffffffffffffffffffffffffffffffffffffffffffffff81146111465781811015611138576040517f08c379a000000000000000000000000000000000000000000000000000000000815260040161112f906124e9565b60405180910390fd5b6111458484848403610ef5565b5b50505050565b600073ffffffffffffffffffffffffffffffffffffffff168373ffffffffffffffffffffffffffffffffffffffff1614156111bc576040517f08c379a00000000000000000000000000000000000000000000000000000000081526004016111b39061257b565b60405180910390fd5b600073ffffffffffffffffffffffffffffffffffffffff168273ffffffffffffffffffffffffffffffffffffffff16141561122c576040517f08c379a00000000000000000000000000000000000000000000000000000000081526004016112239061260d565b60405180910390fd5b61123783838361184f565b60008060008573ffffffffffffffffffffffffffffffffffffffff1673ffffffffffffffffffffffffffffffffffffffff168152602001908152602001600020549050818110156112bd576040517f08c379a00000000000000000000000000000000000000000000000000000000081526004016112b49061269f565b60405180910390fd5b8181036000808673ffffffffffffffffffffffffffffffffffffffff1673ffffffffffffffffffffffffffffffffffffffff16815260200190815260200160002081905550816000808573ffffffffffffffffffffffffffffffffffffffff1673ffffffffffffffffffffffffffffffffffffffff168152602001908152602001600020600082825461135091906120bb565b925050819055508273ffffffffffffffffffffffffffffffffffffffff168473ffffffffffffffffffffffffffffffffffffffff167fddf252ad1be2c89b69c2b068fc378daa952ba7f163c4a11628f55a4df523b3ef846040516113b49190611d90565b60405180910390a36113c7848484611854565b50505050565b6113de816113d9610eed565b611859565b50565b6113eb828261091e565b6114be5760016006600084815260200190815260200160002060000160008373ffffffffffffffffffffffffffffffffffffffff1673ffffffffffffffffffffffffffffffffffffffff16815260200190815260200160002060006101000a81548160ff021916908315150217905550611463610eed565b73ffffffffffffffffffffffffffffffffffffffff168173ffffffffffffffffffffffffffffffffffffffff16837f2f8788117e7eff1d82e926ec794901d17c78024a50270940304540a733656f0d60405160405180910390a45b5050565b6114cc828261091e565b156115a05760006006600084815260200190815260200160002060000160008373ffffffffffffffffffffffffffffffffffffffff1673ffffffffffffffffffffffffffffffffffffffff16815260200190815260200160002060006101000a81548160ff021916908315150217905550611545610eed565b73ffffffffffffffffffffffffffffffffffffffff168173ffffffffffffffffffffffffffffffffffffffff16837ff6391f5c32d9c69d2a47ea670b442974b53935d1edc7fd64eb21e047a839171b60405160405180910390a45b5050565b6115ae8282610cb9565b5050565b6000600560009054906101000a900473ffffffffffffffffffffffffffffffffffffffff16905081600560006101000a81548173ffffffffffffffffffffffffffffffffffffffff021916908373ffffffffffffffffffffffffffffffffffffffff1602179055508173ffffffffffffffffffffffffffffffffffffffff168173ffffffffffffffffffffffffffffffffffffffff167f8be0079c531659141344cd1fd0a4f28419497f9722a3daafe3b4186f6b6457e060405160405180910390a35050565b600073ffffffffffffffffffffffffffffffffffffffff168273ffffffffffffffffffffffffffffffffffffffff1614156116e8576040517f08c379a00000000000000000000000000000000000000000000000000000000081526004016116df90612731565b60405180910390fd5b6116f48260008361184f565b60008060008473ffffffffffffffffffffffffffffffffffffffff1673ffffffffffffffffffffffffffffffffffffffff1681526020019081526020016000205490508181101561177a576040517f08c379a0000000000000000000000000000000000000000000000000000000008152600401611771906127c3565b60405180910390fd5b8181036000808573ffffffffffffffffffffffffffffffffffffffff1673ffffffffffffffffffffffffffffffffffffffff1681526020019081526020016000208190555081600260008282546117d191906127e3565b92505081905550600073ffffffffffffffffffffffffffffffffffffffff168373ffffffffffffffffffffffffffffffffffffffff167fddf252ad1be2c89b69c2b068fc378daa952ba7f163c4a11628f55a4df523b3ef846040516118369190611d90565b60405180910390a361184a83600084611854565b505050565b505050565b505050565b611863828261091e565b6118f2576118888173ffffffffffffffffffffffffffffffffffffffff1660146118f6565b6118968360001c60206118f6565b6040516020016118a79291906128eb565b6040516020818303038152906040526040517f08c379a00000000000000000000000000000000000000000000000000000000081526004016118e99190611c8b565b60405180910390fd5b5050565b6060600060028360026119099190612925565b61191391906120bb565b67ffffffffffffffff81111561192c5761192b61297f565b5b6040519080825280601f01601f19166020018201604052801561195e5781602001600182028036833780820191505090505b5090507f300000000000000000000000000000000000000000000000000000000000000081600081518110611996576119956129ae565b5b60200101907effffffffffffffffffffffffffffffffffffffffffffffffffffffffffffff1916908160001a9053507f7800000000000000000000000000000000000000000000000000000000000000816001815181106119fa576119f96129ae565b5b60200101907effffffffffffffffffffffffffffffffffffffffffffffffffffffffffffff1916908160001a90535060006001846002611a3a9190612925565b611a4491906120bb565b90505b6001811115611ae4577f3031323334353637383961626364656600000000000000000000000000000000600f861660108110611a8657611a856129ae565b5b1a60f81b828281518110611a9d57611a9c6129ae565b5b60200101907effffffffffffffffffffffffffffffffffffffffffffffffffffffffffffff1916908160001a905350600485901c945080611add906129dd565b9050611a47565b5060008414611b28576040517f08c379a0000000000000000000000000000000000000000000000000000000008152600401611b1f90612a53565b60405180910390fd5b8091505092915050565b600080fd5b60007fffffffff0000000000000000000000000000000000000000000000000000000082169050919050565b611b6c81611b37565b8114611b7757600080fd5b50565b600081359050611b8981611b63565b92915050565b600060208284031215611ba557611ba4611b32565b5b6000611bb384828501611b7a565b91505092915050565b60008115159050919050565b611bd181611bbc565b82525050565b6000602082019050611bec6000830184611bc8565b92915050565b600081519050919050565b600082825260208201905092915050565b60005b83811015611c2c578082015181840152602081019050611c11565b83811115611c3b576000848401525b50505050565b6000601f19601f8301169050919050565b6000611c5d82611bf2565b611c678185611bfd565b9350611c77818560208601611c0e565b611c8081611c41565b840191505092915050565b60006020820190508181036000830152611ca58184611c52565b905092915050565b600073ffffffffffffffffffffffffffffffffffffffff82169050919050565b6000611cd882611cad565b9050919050565b611ce881611ccd565b8114611cf357600080fd5b50565b600081359050611d0581611cdf565b92915050565b6000819050919050565b611d1e81611d0b565b8114611d2957600080fd5b50565b600081359050611d3b81611d15565b92915050565b60008060408385031215611d5857611d57611b32565b5b6000611d6685828601611cf6565b9250506020611d7785828601611d2c565b9150509250929050565b611d8a81611d0b565b82525050565b6000602082019050611da56000830184611d81565b92915050565b600080600060608486031215611dc457611dc3611b32565b5b6000611dd286828701611cf6565b9350506020611de386828701611cf6565b9250506040611df486828701611d2c565b9150509250925092565b6000819050919050565b611e1181611dfe565b8114611e1c57600080fd5b50565b600081359050611e2e81611e08565b92915050565b600060208284031215611e4a57611e49611b32565b5b6000611e5884828501611e1f565b91505092915050565b611e6a81611dfe565b82525050565b6000602082019050611e856000830184611e61565b92915050565b60008060408385031215611ea257611ea1611b32565b5b6000611eb085828601611e1f565b9250506020611ec185828601611cf6565b9150509250929050565b600060ff82169050919050565b611ee181611ecb565b82525050565b6000602082019050611efc6000830184611ed8565b92915050565b600060208284031215611f1857611f17611b32565b5b6000611f2684828501611cf6565b91505092915050565b611f3881611ccd565b82525050565b6000602082019050611f536000830184611f2f565b92915050565b60008060408385031215611f7057611f6f611b32565b5b6000611f7e85828601611cf6565b9250506020611f8f85828601611cf6565b9150509250929050565b7f4e487b7100000000000000000000000000000000000000000000000000000000600052602260045260246000fd5b60006002820490506001821680611fe057607f821691505b60208210811415611ff457611ff3611f99565b5b50919050565b7f416363657373436f6e74726f6c3a2063616e206f6e6c792072656e6f756e636560008201527f20726f6c657320666f722073656c660000000000000000000000000000000000602082015250565b6000612056602f83611bfd565b915061206182611ffa565b604082019050919050565b6000602082019050818103600083015261208581612049565b9050919050565b7f4e487b7100000000000000000000000000000000000000000000000000000000600052601160045260246000fd5b60006120c682611d0b565b91506120d183611d0b565b9250827fffffffffffffffffffffffffffffffffffffffffffffffffffffffffffffffff038211156121065761210561208c565b5b828201905092915050565b7f4f776e61626c653a2063616c6c6572206973206e6f7420746865206f776e6572600082015250565b6000612147602083611bfd565b915061215282612111565b602082019050919050565b600060208201905081810360008301526121768161213a565b9050919050565b7f45524332303a2064656372656173656420616c6c6f77616e63652062656c6f7760008201527f207a65726f000000000000000000000000000000000000000000000000000000602082015250565b60006121d9602583611bfd565b91506121e48261217d565b604082019050919050565b60006020820190508181036000830152612208816121cc565b9050919050565b7f4f776e61626c653a206e6577206f776e657220697320746865207a65726f206160008201527f6464726573730000000000000000000000000000000000000000000000000000602082015250565b600061226b602683611bfd565b91506122768261220f565b604082019050919050565b6000602082019050818103600083015261229a8161225e565b9050919050565b7f45524332304361707065643a2063617020657863656564656400000000000000600082015250565b60006122d7601983611bfd565b91506122e2826122a1565b602082019050919050565b60006020820190508181036000830152612306816122ca565b9050919050565b7f45524332303a206d696e7420746f20746865207a65726f206164647265737300600082015250565b6000612343601f83611bfd565b915061234e8261230d565b602082019050919050565b6000602082019050818103600083015261237281612336565b9050919050565b7f45524332303a20617070726f76652066726f6d20746865207a65726f2061646460008201527f7265737300000000000000000000000000000000000000000000000000000000602082015250565b60006123d5602483611bfd565b91506123e082612379565b604082019050919050565b60006020820190508181036000830152612404816123c8565b9050919050565b7f45524332303a20617070726f766520746f20746865207a65726f20616464726560008201527f7373000000000000000000000000000000000000000000000000000000000000602082015250565b6000612467602283611bfd565b91506124728261240b565b604082019050919050565b600060208201905081810360008301526124968161245a565b9050919050565b7f45524332303a20696e73756666696369656e7420616c6c6f77616e6365000000600082015250565b60006124d3601d83611bfd565b91506124de8261249d565b602082019050919050565b60006020820190508181036000830152612502816124c6565b9050919050565b7f45524332303a207472616e736665722066726f6d20746865207a65726f20616460008201527f6472657373000000000000000000000000000000000000000000000000000000602082015250565b6000612565602583611bfd565b915061257082612509565b604082019050919050565b6000602082019050818103600083015261259481612558565b9050919050565b7f45524332303a207472616e7366657220746f20746865207a65726f206164647260008201527f6573730000000000000000000000000000000000000000000000000000000000602082015250565b60006125f7602383611bfd565b91506126028261259b565b604082019050919050565b60006020820190508181036000830152612626816125ea565b9050919050565b7f45524332303a207472616e7366657220616d6f756e742065786365656473206260008201527f616c616e63650000000000000000000000000000000000000000000000000000602082015250565b6000612689602683611bfd565b91506126948261262d565b604082019050919050565b600060208201905081810360008301526126b88161267c565b9050919050565b7f45524332303a206275726e2066726f6d20746865207a65726f2061646472657360008201527f7300000000000000000000000000000000000000000000000000000000000000602082015250565b600061271b602183611bfd565b9150612726826126bf565b604082019050919050565b6000602082019050818103600083015261274a8161270e565b9050919050565b7f45524332303a206275726e20616d6f756e7420657863656564732062616c616e60008201527f6365000000000000000000000000000000000000000000000000000000000000602082015250565b60006127ad602283611bfd565b91506127b882612751565b604082019050919050565b600060208201905081810360008301526127dc816127a0565b9050919050565b60006127ee82611d0b565b91506127f983611d0b565b92508282101561280c5761280b61208c565b5b828203905092915050565b600081905092915050565b7f416363657373436f6e74726f6c3a206163636f756e7420000000000000000000600082015250565b6000612858601783612817565b915061286382612822565b601782019050919050565b600061287982611bf2565b6128838185612817565b9350612893818560208601611c0e565b80840191505092915050565b7f206973206d697373696e6720726f6c6520000000000000000000000000000000600082015250565b60006128d5601183612817565b91506128e08261289f565b601182019050919050565b60006128f68261284b565b9150612902828561286e565b915061290d826128c8565b9150612919828461286e565b91508190509392505050565b600061293082611d0b565b915061293b83611d0b565b9250817fffffffffffffffffffffffffffffffffffffffffffffffffffffffffffffffff04831182151516156129745761297361208c565b5b828202905092915050565b7f4e487b7100000000000000000000000000000000000000000000000000000000600052604160045260246000fd5b7f4e487b7100000000000000000000000000000000000000000000000000000000600052603260045260246000fd5b60006129e882611d0b565b915060008214156129fc576129fb61208c565b5b600182039050919050565b7f537472696e67733a20686578206c656e67746820696e73756666696369656e74600082015250565b6000612a3d602083611bfd565b9150612a4882612a07565b602082019050919050565b60006020820190508181036000830152612a6c81612a30565b905091905056fea2646970667358221220716e044a9448789d52420f4a42166bc6b383bf547c0d83ef55b9c8c4f1ebd9eb64736f6c634300080a0033",
  "immutableReferences": {
    "2194": [
      {
        "length": 32,
        "start": 1805
      }
    ]
  },
  "source": "// SPDX-License-Identifier: MIT\npragma solidity ^0.8.0;\n\nimport \"./Food.sol\";\n\ncontract FastFood is Food {\n  constructor(address _dao) Food(\"FastFood\", \"FFOOD\", 100000000 * 10 ** 18, _dao) {\n    _mint(_dao, 10000000 * (10 ** decimals())); // 10% of supply are LP incentives\n  }\n}\n",
  "sourcePath": "/Users/chris/workspace/ratalert/ratalert-lp/contracts/FastFood.sol",
  "compiler": {
    "name": "solc",
    "version": "0.8.10+commit.fc410830.Emscripten.clang"
  },
  "schemaVersion": "3.4.7",
  "updatedAt": "2022-06-07T08:26:17.847Z",
  "devdoc": {
    "kind": "dev",
    "methods": {
      "allowance(address,address)": {
        "details": "See {IERC20-allowance}."
      },
      "approve(address,uint256)": {
        "details": "See {IERC20-approve}. NOTE: If `amount` is the maximum `uint256`, the allowance is not updated on `transferFrom`. This is semantically equivalent to an infinite approval. Requirements: - `spender` cannot be the zero address."
      },
      "balanceOf(address)": {
        "details": "See {IERC20-balanceOf}."
      },
      "burn(address,uint256)": {
        "params": {
          "amount": "- The amount of food tokens to burn",
          "from": "- The holder of the food token"
        }
      },
      "cap()": {
        "details": "Returns the cap on the token's total supply."
      },
      "decimals()": {
        "details": "Returns the number of decimals used to get its user representation. For example, if `decimals` equals `2`, a balance of `505` tokens should be displayed to a user as `5.05` (`505 / 10 ** 2`). Tokens usually opt for a value of 18, imitating the relationship between Ether and Wei. This is the value {ERC20} uses, unless this function is overridden; NOTE: This information is only used for _display_ purposes: it in no way affects any of the arithmetic of the contract, including {IERC20-balanceOf} and {IERC20-transfer}."
      },
      "decreaseAllowance(address,uint256)": {
        "details": "Atomically decreases the allowance granted to `spender` by the caller. This is an alternative to {approve} that can be used as a mitigation for problems described in {IERC20-approve}. Emits an {Approval} event indicating the updated allowance. Requirements: - `spender` cannot be the zero address. - `spender` must have allowance for the caller of at least `subtractedValue`."
      },
      "getRoleAdmin(bytes32)": {
        "details": "Returns the admin role that controls `role`. See {grantRole} and {revokeRole}. To change a role's admin, use {_setRoleAdmin}."
      },
      "grantRole(bytes32,address)": {
        "details": "Grants `role` to `account`. If `account` had not been already granted `role`, emits a {RoleGranted} event. Requirements: - the caller must have ``role``'s admin role."
      },
      "hasRole(bytes32,address)": {
        "details": "Returns `true` if `account` has been granted `role`."
      },
      "increaseAllowance(address,uint256)": {
        "details": "Atomically increases the allowance granted to `spender` by the caller. This is an alternative to {approve} that can be used as a mitigation for problems described in {IERC20-approve}. Emits an {Approval} event indicating the updated allowance. Requirements: - `spender` cannot be the zero address."
      },
      "mint(address,uint256)": {
        "params": {
          "amount": "- The amount of food tokens to mint",
          "to": "- The recipient of the food token"
        }
      },
      "name()": {
        "details": "Returns the name of the token."
      },
      "owner()": {
        "details": "Returns the address of the current owner."
      },
      "renounceOwnership()": {
        "details": "Leaves the contract without owner. It will not be possible to call `onlyOwner` functions anymore. Can only be called by the current owner. NOTE: Renouncing ownership will leave the contract without an owner, thereby removing any functionality that is only available to the owner."
      },
      "renounceRole(bytes32,address)": {
        "details": "Revokes `role` from the calling account. Roles are often managed via {grantRole} and {revokeRole}: this function's purpose is to provide a mechanism for accounts to lose their privileges if they are compromised (such as when a trusted device is misplaced). If the calling account had been revoked `role`, emits a {RoleRevoked} event. Requirements: - the caller must be `account`."
      },
      "revokeRole(bytes32,address)": {
        "details": "Revokes `role` from `account`. If `account` had been granted `role`, emits a {RoleRevoked} event. Requirements: - the caller must have ``role``'s admin role."
      },
      "supportsInterface(bytes4)": {
        "details": "See {IERC165-supportsInterface}."
      },
      "symbol()": {
        "details": "Returns the symbol of the token, usually a shorter version of the name."
      },
      "totalSupply()": {
        "details": "See {IERC20-totalSupply}."
      },
      "transfer(address,uint256)": {
        "details": "See {IERC20-transfer}. Requirements: - `to` cannot be the zero address. - the caller must have a balance of at least `amount`."
      },
      "transferFrom(address,address,uint256)": {
        "details": "See {IERC20-transferFrom}. Emits an {Approval} event indicating the updated allowance. This is not required by the EIP. See the note at the beginning of {ERC20}. NOTE: Does not update the allowance if the current allowance is the maximum `uint256`. Requirements: - `from` and `to` cannot be the zero address. - `from` must have a balance of at least `amount`. - the caller must have allowance for ``from``'s tokens of at least `amount`."
      },
      "transferOwnership(address)": {
        "details": "Transfers ownership of the contract to a new account (`newOwner`). Can only be called by the current owner."
      }
    },
    "version": 1
  },
  "userdoc": {
    "kind": "user",
    "methods": {
      "burn(address,uint256)": {
        "notice": "Burns food tokens from a holder"
      },
      "mint(address,uint256)": {
        "notice": "Mints the implementation food token to the recipient"
      }
    },
    "version": 1
  }
}