{
  "contractName": "FastFoodPool",
  "abi": [
    {
      "inputs": [
        {
          "internalType": "address",
          "name": "_rewardToken",
          "type": "address"
        },
        {
          "internalType": "address",
          "name": "_lpToken",
          "type": "address"
        }
      ],
      "stateMutability": "nonpayable",
      "type": "constructor"
    },
    {
      "anonymous": false,
      "inputs": [
        {
          "indexed": true,
          "internalType": "address",
          "name": "user",
          "type": "address"
        },
        {
          "indexed": false,
          "internalType": "uint256",
          "name": "periodId",
          "type": "uint256"
        },
        {
          "indexed": false,
          "internalType": "uint256",
          "name": "reward",
          "type": "uint256"
        }
      ],
      "name": "Claimed",
      "type": "event"
    },
    {
      "anonymous": false,
      "inputs": [
        {
          "indexed": true,
          "internalType": "address",
          "name": "user",
          "type": "address"
        },
        {
          "indexed": false,
          "internalType": "uint256",
          "name": "amount",
          "type": "uint256"
        }
      ],
      "name": "Deposited",
      "type": "event"
    },
    {
      "anonymous": false,
      "inputs": [
        {
          "indexed": true,
          "internalType": "address",
          "name": "previousOwner",
          "type": "address"
        },
        {
          "indexed": true,
          "internalType": "address",
          "name": "newOwner",
          "type": "address"
        }
      ],
      "name": "OwnershipTransferred",
      "type": "event"
    },
    {
      "anonymous": false,
      "inputs": [
        {
          "indexed": false,
          "internalType": "address",
          "name": "account",
          "type": "address"
        }
      ],
      "name": "Paused",
      "type": "event"
    },
    {
      "anonymous": false,
      "inputs": [
        {
          "indexed": true,
          "internalType": "address",
          "name": "user",
          "type": "address"
        },
        {
          "indexed": false,
          "internalType": "uint256",
          "name": "reward",
          "type": "uint256"
        }
      ],
      "name": "RewardPaid",
      "type": "event"
    },
    {
      "anonymous": false,
      "inputs": [
        {
          "indexed": false,
          "internalType": "uint256",
          "name": "id",
          "type": "uint256"
        },
        {
          "indexed": false,
          "internalType": "uint256",
          "name": "reward",
          "type": "uint256"
        },
        {
          "indexed": false,
          "internalType": "uint256",
          "name": "from",
          "type": "uint256"
        },
        {
          "indexed": false,
          "internalType": "uint256",
          "name": "to",
          "type": "uint256"
        }
      ],
      "name": "RewardPeriodCreated",
      "type": "event"
    },
    {
      "anonymous": false,
      "inputs": [
        {
          "indexed": true,
          "internalType": "address",
          "name": "user",
          "type": "address"
        },
        {
          "indexed": false,
          "internalType": "uint256",
          "name": "amount",
          "type": "uint256"
        }
      ],
      "name": "Staked",
      "type": "event"
    },
    {
      "anonymous": false,
      "inputs": [
        {
          "indexed": true,
          "internalType": "address",
          "name": "user",
          "type": "address"
        },
        {
          "indexed": false,
          "internalType": "uint256",
          "name": "amount",
          "type": "uint256"
        }
      ],
      "name": "UnStaked",
      "type": "event"
    },
    {
      "anonymous": false,
      "inputs": [
        {
          "indexed": false,
          "internalType": "address",
          "name": "account",
          "type": "address"
        }
      ],
      "name": "Unpaused",
      "type": "event"
    },
    {
      "anonymous": false,
      "inputs": [
        {
          "indexed": true,
          "internalType": "address",
          "name": "user",
          "type": "address"
        },
        {
          "indexed": false,
          "internalType": "uint256",
          "name": "amount",
          "type": "uint256"
        }
      ],
      "name": "Withdrawn",
      "type": "event"
    },
    {
      "inputs": [
        {
          "internalType": "address",
          "name": "",
          "type": "address"
        }
      ],
      "name": "balances",
      "outputs": [
        {
          "internalType": "uint256",
          "name": "",
          "type": "uint256"
        }
      ],
      "stateMutability": "view",
      "type": "function",
      "constant": true
    },
    {
      "inputs": [],
      "name": "claimReward",
      "outputs": [],
      "stateMutability": "nonpayable",
      "type": "function"
    },
    {
      "inputs": [],
      "name": "claimableReward",
      "outputs": [
        {
          "internalType": "uint256",
          "name": "pending",
          "type": "uint256"
        }
      ],
      "stateMutability": "view",
      "type": "function",
      "constant": true
    },
    {
      "inputs": [
        {
          "internalType": "uint256",
          "name": "index",
          "type": "uint256"
        }
      ],
      "name": "deleteRewardPeriod",
      "outputs": [],
      "stateMutability": "nonpayable",
      "type": "function"
    },
    {
      "inputs": [
        {
          "internalType": "uint256",
          "name": "amount",
          "type": "uint256"
        }
      ],
      "name": "deposit",
      "outputs": [],
      "stateMutability": "nonpayable",
      "type": "function"
    },
    {
      "inputs": [
        {
          "internalType": "uint256",
          "name": "amount",
          "type": "uint256"
        }
      ],
      "name": "depositAndStartStake",
      "outputs": [],
      "stateMutability": "nonpayable",
      "type": "function"
    },
    {
      "inputs": [
        {
          "internalType": "uint256",
          "name": "amount",
          "type": "uint256"
        }
      ],
      "name": "depositReward",
      "outputs": [
        {
          "internalType": "bool",
          "name": "success",
          "type": "bool"
        }
      ],
      "stateMutability": "nonpayable",
      "type": "function"
    },
    {
      "inputs": [
        {
          "internalType": "uint256",
          "name": "amount",
          "type": "uint256"
        }
      ],
      "name": "endStake",
      "outputs": [],
      "stateMutability": "nonpayable",
      "type": "function"
    },
    {
      "inputs": [
        {
          "internalType": "uint256",
          "name": "amount",
          "type": "uint256"
        }
      ],
      "name": "endStakeAndWithdraw",
      "outputs": [],
      "stateMutability": "nonpayable",
      "type": "function"
    },
    {
      "inputs": [],
      "name": "getBalance",
      "outputs": [
        {
          "internalType": "uint256",
          "name": "",
          "type": "uint256"
        }
      ],
      "stateMutability": "view",
      "type": "function",
      "constant": true
    },
    {
      "inputs": [],
      "name": "getClaimStats",
      "outputs": [
        {
          "internalType": "uint256",
          "name": "",
          "type": "uint256"
        },
        {
          "internalType": "uint256",
          "name": "",
          "type": "uint256"
        }
      ],
      "stateMutability": "view",
      "type": "function",
      "constant": true
    },
    {
      "inputs": [],
      "name": "getCurrentRewardPeriodId",
      "outputs": [
        {
          "internalType": "uint256",
          "name": "",
          "type": "uint256"
        }
      ],
      "stateMutability": "view",
      "type": "function",
      "constant": true
    },
    {
      "inputs": [],
      "name": "getRewardPeriodsCount",
      "outputs": [
        {
          "internalType": "uint256",
          "name": "",
          "type": "uint256"
        }
      ],
      "stateMutability": "view",
      "type": "function",
      "constant": true
    },
    {
      "inputs": [],
      "name": "getRewardsStats",
      "outputs": [
        {
          "components": [
            {
              "internalType": "uint256",
              "name": "claimableRewards",
              "type": "uint256"
            },
            {
              "internalType": "uint256",
              "name": "rewardsPaid",
              "type": "uint256"
            },
            {
              "internalType": "uint256",
              "name": "rewardRate",
              "type": "uint256"
            },
            {
              "internalType": "uint256",
              "name": "totalRewardsPaid",
              "type": "uint256"
            }
          ],
          "internalType": "struct StakingRewardPool.RewardsStats",
          "name": "",
          "type": "tuple"
        }
      ],
      "stateMutability": "view",
      "type": "function",
      "constant": true
    },
    {
      "inputs": [],
      "name": "getStakedBalance",
      "outputs": [
        {
          "internalType": "uint256",
          "name": "",
          "type": "uint256"
        }
      ],
      "stateMutability": "view",
      "type": "function",
      "constant": true
    },
    {
      "inputs": [
        {
          "internalType": "uint256",
          "name": "reward",
          "type": "uint256"
        },
        {
          "internalType": "uint256",
          "name": "from",
          "type": "uint256"
        },
        {
          "internalType": "uint256",
          "name": "to",
          "type": "uint256"
        }
      ],
      "name": "newRewardPeriod",
      "outputs": [],
      "stateMutability": "nonpayable",
      "type": "function"
    },
    {
      "inputs": [],
      "name": "owner",
      "outputs": [
        {
          "internalType": "address",
          "name": "",
          "type": "address"
        }
      ],
      "stateMutability": "view",
      "type": "function",
      "constant": true
    },
    {
      "inputs": [],
      "name": "pause",
      "outputs": [],
      "stateMutability": "nonpayable",
      "type": "function"
    },
    {
      "inputs": [],
      "name": "paused",
      "outputs": [
        {
          "internalType": "bool",
          "name": "",
          "type": "bool"
        }
      ],
      "stateMutability": "view",
      "type": "function",
      "constant": true
    },
    {
      "inputs": [],
      "name": "renounceOwnership",
      "outputs": [],
      "stateMutability": "nonpayable",
      "type": "function"
    },
    {
      "inputs": [],
      "name": "reset",
      "outputs": [],
      "stateMutability": "nonpayable",
      "type": "function"
    },
    {
      "inputs": [],
      "name": "rewardBalance",
      "outputs": [
        {
          "internalType": "uint256",
          "name": "",
          "type": "uint256"
        }
      ],
      "stateMutability": "view",
      "type": "function",
      "constant": true
    },
    {
      "inputs": [
        {
          "internalType": "uint256",
          "name": "",
          "type": "uint256"
        }
      ],
      "name": "rewardPeriods",
      "outputs": [
        {
          "internalType": "uint256",
          "name": "id",
          "type": "uint256"
        },
        {
          "internalType": "uint256",
          "name": "reward",
          "type": "uint256"
        },
        {
          "internalType": "uint256",
          "name": "from",
          "type": "uint256"
        },
        {
          "internalType": "uint256",
          "name": "to",
          "type": "uint256"
        },
        {
          "internalType": "uint256",
          "name": "lastUpdated",
          "type": "uint256"
        },
        {
          "internalType": "uint256",
          "name": "totalStaked",
          "type": "uint256"
        },
        {
          "internalType": "uint256",
          "name": "rewardPerTokenStaked",
          "type": "uint256"
        },
        {
          "internalType": "uint256",
          "name": "totalRewardsPaid",
          "type": "uint256"
        }
      ],
      "stateMutability": "view",
      "type": "function",
      "constant": true
    },
    {
      "inputs": [
        {
          "internalType": "address",
          "name": "_dao",
          "type": "address"
        }
      ],
      "name": "setDao",
      "outputs": [],
      "stateMutability": "nonpayable",
      "type": "function"
    },
    {
      "inputs": [
        {
          "internalType": "uint256",
          "name": "",
          "type": "uint256"
        }
      ],
      "name": "stakers",
      "outputs": [
        {
          "internalType": "address",
          "name": "",
          "type": "address"
        }
      ],
      "stateMutability": "view",
      "type": "function",
      "constant": true
    },
    {
      "inputs": [
        {
          "internalType": "address",
          "name": "",
          "type": "address"
        }
      ],
      "name": "stakes",
      "outputs": [
        {
          "internalType": "uint256",
          "name": "",
          "type": "uint256"
        }
      ],
      "stateMutability": "view",
      "type": "function",
      "constant": true
    },
    {
      "inputs": [
        {
          "internalType": "uint256",
          "name": "amount",
          "type": "uint256"
        }
      ],
      "name": "startStake",
      "outputs": [],
      "stateMutability": "nonpayable",
      "type": "function"
    },
    {
      "inputs": [],
      "name": "totalStakes",
      "outputs": [
        {
          "internalType": "uint256",
          "name": "",
          "type": "uint256"
        }
      ],
      "stateMutability": "view",
      "type": "function",
      "constant": true
    },
    {
      "inputs": [
        {
          "internalType": "address",
          "name": "newOwner",
          "type": "address"
        }
      ],
      "name": "transferOwnership",
      "outputs": [],
      "stateMutability": "nonpayable",
      "type": "function"
    },
    {
      "inputs": [],
      "name": "unpause",
      "outputs": [],
      "stateMutability": "nonpayable",
      "type": "function"
    },
    {
      "inputs": [
        {
          "internalType": "uint256",
          "name": "amount",
          "type": "uint256"
        }
      ],
      "name": "withdraw",
      "outputs": [],
      "stateMutability": "nonpayable",
      "type": "function"
    },
    {
      "inputs": [
        {
          "internalType": "uint256",
          "name": "amount",
          "type": "uint256"
        }
      ],
      "name": "withdrawReward",
      "outputs": [
        {
          "internalType": "bool",
          "name": "success",
          "type": "bool"
        }
      ],
      "stateMutability": "nonpayable",
      "type": "function"
    }
  ],
  "bytecode": "0x60806040526000600b553480156200001657600080fd5b5060405162003f0a38038062003f0a83398181016040528101906200003c919062000282565b818181818062000061620000556200014c60201b60201c565b6200015460201b60201c565b80600160006101000a81548173ffffffffffffffffffffffffffffffffffffffff021916908373ffffffffffffffffffffffffffffffffffffffff160217905550506000600560006101000a81548160ff021916908315150217905550505081600960006101000a81548173ffffffffffffffffffffffffffffffffffffffff021916908373ffffffffffffffffffffffffffffffffffffffff160217905550505081600960006101000a81548173ffffffffffffffffffffffffffffffffffffffff021916908373ffffffffffffffffffffffffffffffffffffffff1602179055505050620002c9565b600033905090565b60008060009054906101000a900473ffffffffffffffffffffffffffffffffffffffff169050816000806101000a81548173ffffffffffffffffffffffffffffffffffffffff021916908373ffffffffffffffffffffffffffffffffffffffff1602179055508173ffffffffffffffffffffffffffffffffffffffff168173ffffffffffffffffffffffffffffffffffffffff167f8be0079c531659141344cd1fd0a4f28419497f9722a3daafe3b4186f6b6457e060405160405180910390a35050565b600080fd5b600073ffffffffffffffffffffffffffffffffffffffff82169050919050565b60006200024a826200021d565b9050919050565b6200025c816200023d565b81146200026857600080fd5b50565b6000815190506200027c8162000251565b92915050565b600080604083850312156200029c576200029b62000218565b5b6000620002ac858286016200026b565b9250506020620002bf858286016200026b565b9150509250929050565b613c3180620002d96000396000f3fe608060405234801561001057600080fd5b50600436106101f05760003560e01c80638252097d1161010f578063b88a802f116100a2578063e7181edc11610071578063e7181edc14610529578063f2fde38b14610547578063fad0138d14610563578063fd5e6dd114610581576101f0565b8063b88a802f146104db578063bf9befb1146104e5578063d826f88f14610503578063d9c5fbed1461050d576101f0565b8063aa5c3ab4116100de578063aa5c3ab414610469578063aaf6364014610487578063b51bd40f146104a3578063b6b55f25146104bf576101f0565b80638252097d146103eb5780638456cb59146104225780638da5cb5b1461042c578063a255994b1461044a576101f0565b806333b365d6116101875780635c975abb116101565780635c975abb146103895780636637b882146103a7578063715018a6146103c357806376965867146103cd576101f0565b806333b365d6146103155780633f4ba83a14610331578063523a3f081461033b5780635865b9111461036b576101f0565b80631e2720ff116101c35780631e2720ff1461027b57806327e235e3146102ab5780632ad7b6a9146102db5780632e1a7d4d146102f9576101f0565b80630cbe28d6146101f557806312065fe01461021157806316934fc41461022f57806318e01ec51461025f575b600080fd5b61020f600480360381019061020a9190612ef1565b6105b1565b005b6102196106b7565b6040516102269190612f2d565b60405180910390f35b61024960048036038101906102449190612fa6565b6106fe565b6040516102569190612f2d565b60405180910390f35b61027960048036038101906102749190612ef1565b610716565b005b61029560048036038101906102909190612ef1565b6108b5565b6040516102a29190612fee565b60405180910390f35b6102c560048036038101906102c09190612fa6565b61098a565b6040516102d29190612f2d565b60405180910390f35b6102e36109a2565b6040516102f0919061306d565b60405180910390f35b610313600480360381019061030e9190612ef1565b610aba565b005b61032f600480360381019061032a9190613088565b610cc3565b005b610339611012565b005b61035560048036038101906103509190612ef1565b611024565b6040516103629190612fee565b60405180910390f35b6103736110f7565b6040516103809190612f2d565b60405180910390f35b610391611145565b60405161039e9190612fee565b60405180910390f35b6103c160048036038101906103bc9190612fa6565b61115c565b005b6103cb61121c565b005b6103d56112a4565b6040516103e29190612f2d565b60405180910390f35b61040560048036038101906104009190612ef1565b6112eb565b6040516104199897969594939291906130db565b60405180910390f35b61042a611343565b005b610434611355565b6040516104419190613168565b60405180910390f35b61045261137e565b604051610460929190613183565b60405180910390f35b61047161151e565b60405161047e9190612f2d565b60405180910390f35b6104a1600480360381019061049c9190612ef1565b6115c1565b005b6104bd60048036038101906104b89190612ef1565b61161e565b005b6104d960048036038101906104d49190612ef1565b61171c565b005b6104e3611ad5565b005b6104ed611b2f565b6040516104fa9190612f2d565b60405180910390f35b61050b611b35565b005b61052760048036038101906105229190612ef1565b611d9c565b005b610531611df9565b60405161053e9190612f2d565b60405180910390f35b610561600480360381019061055c9190612fa6565b611e0b565b005b61056b611f02565b6040516105789190612f2d565b60405180910390f35b61059b60048036038101906105969190612ef1565b611f0c565b6040516105a89190613168565b60405180910390f35b6105b9611145565b156105f9576040517f08c379a00000000000000000000000000000000000000000000000000000000081526004016105f090613209565b60405180910390fd5b60006106036110f7565b905060008111610648576040517f08c379a000000000000000000000000000000000000000000000000000000000815260040161063f90613275565b60405180910390fd5b610650611f4b565b61065982612105565b6000600a60018361066a91906132c4565b8154811061067b5761067a6132f8565b5b906000526020600020906008020190506106a283826005015461236590919063ffffffff16565b81600501819055506106b261237b565b505050565b6000600260003373ffffffffffffffffffffffffffffffffffffffff1673ffffffffffffffffffffffffffffffffffffffff16815260200190815260200160002054905090565b60076020528060005260406000206000915090505481565b61071e6124fa565b80600a8054905011610765576040517f08c379a000000000000000000000000000000000000000000000000000000000815260040161075c90613373565b60405180910390fd5b60008190505b6001600a8054905061077d91906132c4565b81101561083a57600a6001826107939190613393565b815481106107a4576107a36132f8565b5b9060005260206000209060080201600a82815481106107c6576107c56132f8565b5b906000526020600020906008020160008201548160000155600182015481600101556002820154816002015560038201548160030155600482015481600401556005820154816005015560068201548160060155600782015481600701559050508080610832906133e9565b91505061076b565b50600a80548061084d5761084c613431565b5b6001900381819060005260206000209060080201600080820160009055600182016000905560028201600090556003820160009055600482016000905560058201600090556006820160009055600782016000905550509055600a80549050600b8190555050565b60006108bf6124fa565b600960009054906101000a900473ffffffffffffffffffffffffffffffffffffffff1673ffffffffffffffffffffffffffffffffffffffff166323b872dd600560019054906101000a900473ffffffffffffffffffffffffffffffffffffffff1630856040518463ffffffff1660e01b815260040161094093929190613460565b6020604051808303816000875af115801561095f573d6000803e3d6000fd5b505050506040513d601f19601f8201168201806040525081019061098391906134c3565b9050919050565b60026020528060005260406000206000915090505481565b6109aa612e8e565b60006109b46110f7565b905060006040518060800160405280600081526020016000815260200160008152602001600081525090506000821115610a98576000600a6001846109f991906132c4565b81548110610a0a57610a096132f8565b5b906000526020600020906008020160405180610100016040529081600082015481526020016001820154815260200160028201548152602001600382015481526020016004820154815260200160058201548152602001600682015481526020016007820154815250509050610a7f8161258c565b8260400181815250508060e00151826060018181525050505b610aa061137e565b826000018360200182815250828152505050809250505090565b80600260003373ffffffffffffffffffffffffffffffffffffffff1673ffffffffffffffffffffffffffffffffffffffff168152602001908152602001600020541015610b3c576040517f08c379a0000000000000000000000000000000000000000000000000000000008152600401610b339061353c565b60405180910390fd5b610b8e81600260003373ffffffffffffffffffffffffffffffffffffffff1673ffffffffffffffffffffffffffffffffffffffff1681526020019081526020016000205461236590919063ffffffff16565b600260003373ffffffffffffffffffffffffffffffffffffffff1673ffffffffffffffffffffffffffffffffffffffff16815260200190815260200160002081905550600160009054906101000a900473ffffffffffffffffffffffffffffffffffffffff1673ffffffffffffffffffffffffffffffffffffffff1663a9059cbb33836040518363ffffffff1660e01b8152600401610c2e92919061355c565b6020604051808303816000875af1158015610c4d573d6000803e3d6000fd5b505050506040513d601f19601f82011682018060405250810190610c7191906134c3565b503373ffffffffffffffffffffffffffffffffffffffff167f7084f5476618d8e60b11ef0d7d3f06914655adb8793e28ff7f018d4c76d505d582604051610cb89190612f2d565b60405180910390a250565b610ccb6124fa565b60008311610d0e576040517f08c379a0000000000000000000000000000000000000000000000000000000008152600401610d05906135d1565b60405180910390fd5b8181118015610d1c57504281115b610d5b576040517f08c379a0000000000000000000000000000000000000000000000000000000008152600401610d529061363d565b60405180910390fd5b600080600a8054905014610da557600a6001600a80549050610d7d91906132c4565b81548110610d8e57610d8d6132f8565b5b906000526020600020906008020160050154610da8565b60005b90506000600a805490501480610df35750600a6001600a80549050610dcd91906132c4565b81548110610dde57610ddd6132f8565b5b90600052602060002090600802016003015483115b610e32576040517f08c379a0000000000000000000000000000000000000000000000000000000008152600401610e29906136a9565b60405180910390fd5b600a6040518061010001604052806001600a80549050610e529190613393565b81526020018681526020018581526020018481526020014281526020018381526020016000815260200160008152509080600181540180825580915050600190039060005260206000209060080201600090919091909150600082015181600001556020820151816001015560408201518160020155606082015181600301556080820151816004015560a0820151816005015560c0820151816006015560e082015181600701555050600a80549050600b81905550600960009054906101000a900473ffffffffffffffffffffffffffffffffffffffff1673ffffffffffffffffffffffffffffffffffffffff166323b872dd600560019054906101000a900473ffffffffffffffffffffffffffffffffffffffff1630876040518463ffffffff1660e01b8152600401610f8993929190613460565b6020604051808303816000875af1158015610fa8573d6000803e3d6000fd5b505050506040513d601f19601f82011682018060405250810190610fcc91906134c3565b507f680cc3462f59d3f841fa14e5c8799872d1ef44dd1696d2f58d458b90b6eaac99600b5485858560405161100494939291906136c9565b60405180910390a150505050565b61101a6124fa565b6110226125cb565b565b600061102e6124fa565b600960009054906101000a900473ffffffffffffffffffffffffffffffffffffffff1673ffffffffffffffffffffffffffffffffffffffff1663a9059cbb600560019054906101000a900473ffffffffffffffffffffffffffffffffffffffff16846040518363ffffffff1660e01b81526004016110ad92919061376d565b6020604051808303816000875af11580156110cc573d6000803e3d6000fd5b505050506040513d601f19601f820116820180604052508101906110f091906134c3565b9050919050565b600080600b540361110b5760009050611142565b600a6001600b5461111c91906132c4565b8154811061112d5761112c6132f8565b5b90600052602060002090600802016000015490505b90565b6000600560009054906101000a900460ff16905090565b61116461266d565b73ffffffffffffffffffffffffffffffffffffffff16611182611355565b73ffffffffffffffffffffffffffffffffffffffff16146111d8576040517f08c379a00000000000000000000000000000000000000000000000000000000081526004016111cf906137e2565b60405180910390fd5b80600560016101000a81548173ffffffffffffffffffffffffffffffffffffffff021916908373ffffffffffffffffffffffffffffffffffffffff16021790555050565b61122461266d565b73ffffffffffffffffffffffffffffffffffffffff16611242611355565b73ffffffffffffffffffffffffffffffffffffffff1614611298576040517f08c379a000000000000000000000000000000000000000000000000000000000815260040161128f906137e2565b60405180910390fd5b6112a26000612675565b565b6000600760003373ffffffffffffffffffffffffffffffffffffffff1673ffffffffffffffffffffffffffffffffffffffff16815260200190815260200160002054905090565b600a81815481106112fb57600080fd5b90600052602060002090600802016000915090508060000154908060010154908060020154908060030154908060040154908060050154908060060154908060070154905088565b61134b6124fa565b611353612739565b565b60008060009054906101000a900473ffffffffffffffffffffffffffffffffffffffff16905090565b60008060008060005b600a80549050811015611511576000600a82815481106113aa576113a96132f8565b5b9060005260206000209060080201604051806101000160405290816000820154815260200160018201548152602001600282015481526020016003820154815260200160048201548152602001600582015481526020016006820154815260200160078201548152505090506000611421826127dc565b9050600061143383600001518361289f565b90506000600c60003373ffffffffffffffffffffffffffffffffffffffff1673ffffffffffffffffffffffffffffffffffffffff168152602001908152602001600020600085600001518152602001908152602001600020604051806060016040529081600082015481526020016001820154815260200160028201548152505090506114df6114d08383602001516129c290919063ffffffff16565b886129c290919063ffffffff16565b96506114f88160400151876129c290919063ffffffff16565b9550505050508080611509906133e9565b915050611387565b5081819350935050509091565b6000600960009054906101000a900473ffffffffffffffffffffffffffffffffffffffff1673ffffffffffffffffffffffffffffffffffffffff166370a08231306040518263ffffffff1660e01b815260040161157b9190613168565b602060405180830381865afa158015611598573d6000803e3d6000fd5b505050506040513d601f19601f820116820180604052508101906115bc9190613817565b905090565b6115c9611145565b15611609576040517f08c379a000000000000000000000000000000000000000000000000000000000815260040161160090613209565b60405180910390fd5b611612816105b1565b61161b81610aba565b50565b611626611145565b15611666576040517f08c379a000000000000000000000000000000000000000000000000000000000815260040161165d90613209565b60405180910390fd5b60006116706110f7565b9050600081116116b5576040517f08c379a00000000000000000000000000000000000000000000000000000000081526004016116ac90613275565b60405180910390fd5b6116bd611f4b565b6116c6826129d8565b6000600a6001836116d791906132c4565b815481106116e8576116e76132f8565b5b9060005260206000209060080201905061170f8382600501546129c290919063ffffffff16565b8160050181905550505050565b6000811161175f576040517f08c379a000000000000000000000000000000000000000000000000000000000815260040161175690613890565b60405180910390fd5b80600160009054906101000a900473ffffffffffffffffffffffffffffffffffffffff1673ffffffffffffffffffffffffffffffffffffffff1663dd62ed3e33306040518363ffffffff1660e01b81526004016117bd9291906138b0565b602060405180830381865afa1580156117da573d6000803e3d6000fd5b505050506040513d601f19601f820116820180604052508101906117fe9190613817565b101561183f576040517f08c379a000000000000000000000000000000000000000000000000000000000815260040161183690613925565b60405180910390fd5b61189181600260003373ffffffffffffffffffffffffffffffffffffffff1673ffffffffffffffffffffffffffffffffffffffff168152602001908152602001600020546129c290919063ffffffff16565b600260003373ffffffffffffffffffffffffffffffffffffffff1673ffffffffffffffffffffffffffffffffffffffff16815260200190815260200160002081905550600460003373ffffffffffffffffffffffffffffffffffffffff1673ffffffffffffffffffffffffffffffffffffffff16815260200190815260200160002060009054906101000a900460ff166119e1576001600460003373ffffffffffffffffffffffffffffffffffffffff1673ffffffffffffffffffffffffffffffffffffffff16815260200190815260200160002060006101000a81548160ff0219169083151502179055506003339080600181540180825580915050600190039060005260206000200160009091909190916101000a81548173ffffffffffffffffffffffffffffffffffffffff021916908373ffffffffffffffffffffffffffffffffffffffff1602179055505b600160009054906101000a900473ffffffffffffffffffffffffffffffffffffffff1673ffffffffffffffffffffffffffffffffffffffff166323b872dd3330846040518463ffffffff1660e01b8152600401611a4093929190613460565b6020604051808303816000875af1158015611a5f573d6000803e3d6000fd5b505050506040513d601f19601f82011682018060405250810190611a8391906134c3565b503373ffffffffffffffffffffffffffffffffffffffff167f2da466a7b24304f47e87fa2e1e5a81b9831ce54fec19055ce277ca2f39ba42c482604051611aca9190612f2d565b60405180910390a250565b611add611145565b15611b1d576040517f08c379a0000000000000000000000000000000000000000000000000000000008152600401611b1490613209565b60405180910390fd5b611b25611f4b565b611b2d61237b565b565b60085481565b611b3d6124fa565b60005b600a80549050811015611bc557600a8181548110611b6157611b606132f8565b5b9060005260206000209060080201600080820160009055600182016000905560028201600090556003820160009055600482016000905560058201600090556006820160009055600782016000905550508080611bbd906133e9565b915050611b40565b506000600b8190555060005b600380549050811015611ce35760005b600a80549050811015611ccf57600c600060038481548110611c0657611c056132f8565b5b9060005260206000200160009054906101000a900473ffffffffffffffffffffffffffffffffffffffff1673ffffffffffffffffffffffffffffffffffffffff1673ffffffffffffffffffffffffffffffffffffffff1681526020019081526020016000206000600a8381548110611c8157611c806132f8565b5b90600052602060002090600802016000015481526020019081526020016000206000808201600090556001820160009055600282016000905550508080611cc7906133e9565b915050611be1565b508080611cdb906133e9565b915050611bd1565b506000611cee61151e565b9050600960009054906101000a900473ffffffffffffffffffffffffffffffffffffffff1673ffffffffffffffffffffffffffffffffffffffff1663a9059cbb33836040518363ffffffff1660e01b8152600401611d4d92919061355c565b6020604051808303816000875af1158015611d6c573d6000803e3d6000fd5b505050506040513d601f19601f82011682018060405250810190611d9091906134c3565b50611d99612c33565b50565b611da4611145565b15611de4576040517f08c379a0000000000000000000000000000000000000000000000000000000008152600401611ddb90613209565b60405180910390fd5b611ded8161171c565b611df68161161e565b50565b6000611e0361137e565b508091505090565b611e1361266d565b73ffffffffffffffffffffffffffffffffffffffff16611e31611355565b73ffffffffffffffffffffffffffffffffffffffff1614611e87576040517f08c379a0000000000000000000000000000000000000000000000000000000008152600401611e7e906137e2565b60405180910390fd5b600073ffffffffffffffffffffffffffffffffffffffff168173ffffffffffffffffffffffffffffffffffffffff1603611ef6576040517f08c379a0000000000000000000000000000000000000000000000000000000008152600401611eed906139b7565b60405180910390fd5b611eff81612675565b50565b6000600b54905090565b60068181548110611f1c57600080fd5b906000526020600020016000915054906101000a900473ffffffffffffffffffffffffffffffffffffffff1681565b60005b600a80549050811015612102576000600a8281548110611f7157611f706132f8565b5b906000526020600020906008020190506000611fe88260405180610100016040529081600082015481526020016001820154815260200160028201548152602001600382015481526020016004820154815260200160058201548152602001600682015481526020016007820154815250506127dc565b90506000611ffa83600001548361289f565b90506000600c60003373ffffffffffffffffffffffffffffffffffffffff1673ffffffffffffffffffffffffffffffffffffffff168152602001908152602001600020600085600001548152602001908152602001600020905061206b8282600101546129c290919063ffffffff16565b816001018190555082816000018190555083600601548310156120c3576040517f08c379a00000000000000000000000000000000000000000000000000000000081526004016120ba90613a49565b60405180910390fd5b828460060181905550836003015442116120dd57426120e3565b83600301545b84600401819055505050505080806120fa906133e9565b915050611f4e565b50565b61210d611145565b1561214d576040517f08c379a000000000000000000000000000000000000000000000000000000000815260040161214490613209565b60405180910390fd5b80600760003373ffffffffffffffffffffffffffffffffffffffff1673ffffffffffffffffffffffffffffffffffffffff1681526020019081526020016000205410156121cf576040517f08c379a00000000000000000000000000000000000000000000000000000000081526004016121c69061353c565b60405180910390fd5b61222181600260003373ffffffffffffffffffffffffffffffffffffffff1673ffffffffffffffffffffffffffffffffffffffff168152602001908152602001600020546129c290919063ffffffff16565b600260003373ffffffffffffffffffffffffffffffffffffffff1673ffffffffffffffffffffffffffffffffffffffff168152602001908152602001600020819055506122b681600760003373ffffffffffffffffffffffffffffffffffffffff1673ffffffffffffffffffffffffffffffffffffffff1681526020019081526020016000205461236590919063ffffffff16565b600760003373ffffffffffffffffffffffffffffffffffffffff1673ffffffffffffffffffffffffffffffffffffffff1681526020019081526020016000208190555061230e8160085461236590919063ffffffff16565b6008819055503373ffffffffffffffffffffffffffffffffffffffff167f79d3df6837cc49ff0e09fd3258e6e45594e0703445bb06825e9d75156eaee8f08260405161235a9190612f2d565b60405180910390a250565b6000818361237391906132c4565b905092915050565b6000805b600a805490508110156124e3576000600a82815481106123a2576123a16132f8565b5b906000526020600020906008020190506000600c60003373ffffffffffffffffffffffffffffffffffffffff1673ffffffffffffffffffffffffffffffffffffffff1681526020019081526020016000206000836000015481526020019081526020016000209050600081600101549050600081146124cd576000826001018190555061243c8183600201546129c290919063ffffffff16565b826002018190555061245b8184600701546129c290919063ffffffff16565b836007018190555061247681866129c290919063ffffffff16565b94503373ffffffffffffffffffffffffffffffffffffffff167f987d620f307ff6b94d58743cb7a7509f24071586a77759b77c2d4e29f75a2f9a8460000154836040516124c4929190613183565b60405180910390a25b50505080806124db906133e9565b91505061237f565b50600081146124f7576124f63382612d6f565b5b50565b600560019054906101000a900473ffffffffffffffffffffffffffffffffffffffff1673ffffffffffffffffffffffffffffffffffffffff163373ffffffffffffffffffffffffffffffffffffffff161461258a576040517f08c379a000000000000000000000000000000000000000000000000000000000815260040161258190613ab5565b60405180910390fd5b565b6000806125aa8360400151846060015161236590919063ffffffff16565b90506125c3818460200151612e6290919063ffffffff16565b915050919050565b6125d3611145565b612612576040517f08c379a000000000000000000000000000000000000000000000000000000000815260040161260990613b21565b60405180910390fd5b6000600560006101000a81548160ff0219169083151502179055507f5db9ee0a495bf2e6ff9c91a7834c1ba4fdd244a5e8aa4e537bd38aeae4b073aa61265661266d565b6040516126639190613168565b60405180910390a1565b600033905090565b60008060009054906101000a900473ffffffffffffffffffffffffffffffffffffffff169050816000806101000a81548173ffffffffffffffffffffffffffffffffffffffff021916908373ffffffffffffffffffffffffffffffffffffffff1602179055508173ffffffffffffffffffffffffffffffffffffffff168173ffffffffffffffffffffffffffffffffffffffff167f8be0079c531659141344cd1fd0a4f28419497f9722a3daafe3b4186f6b6457e060405160405180910390a35050565b612741611145565b15612781576040517f08c379a000000000000000000000000000000000000000000000000000000000815260040161277890613209565b60405180910390fd5b6001600560006101000a81548160ff0219169083151502179055507f62e78cea01bee320cd4e420270b5ea74000d11b0c9f74754ebdbfc544b05a2586127c561266d565b6040516127d29190613168565b60405180910390a1565b6000806127e88361258c565b90506000836060015142116127fd5742612803565b83606001515b9050600061281e85608001518361236590919063ffffffff16565b905060006128358483612e7890919063ffffffff16565b905060008660c00151905060008760a00151146128925761288f61287c8860a0015161286e633b9aca0086612e7890919063ffffffff16565b612e6290919063ffffffff16565b8860c001516129c290919063ffffffff16565b90505b8095505050505050919050565b60008082036128b157600090506129bc565b6000600760003373ffffffffffffffffffffffffffffffffffffffff1673ffffffffffffffffffffffffffffffffffffffff1681526020019081526020016000205490506000600c60003373ffffffffffffffffffffffffffffffffffffffff1673ffffffffffffffffffffffffffffffffffffffff16815260200190815260200160002060008681526020019081526020016000206040518060600160405290816000820154815260200160018201548152602001600282015481525050905060006129b3633b9aca006129a561299685600001518961236590919063ffffffff16565b86612e7890919063ffffffff16565b612e6290919063ffffffff16565b90508093505050505b92915050565b600081836129d09190613393565b905092915050565b60008111612a1b576040517f08c379a0000000000000000000000000000000000000000000000000000000008152600401612a1290613890565b60405180910390fd5b80600260003373ffffffffffffffffffffffffffffffffffffffff1673ffffffffffffffffffffffffffffffffffffffff168152602001908152602001600020541015612a9d576040517f08c379a0000000000000000000000000000000000000000000000000000000008152600401612a949061353c565b60405180910390fd5b612aef81600260003373ffffffffffffffffffffffffffffffffffffffff1673ffffffffffffffffffffffffffffffffffffffff1681526020019081526020016000205461236590919063ffffffff16565b600260003373ffffffffffffffffffffffffffffffffffffffff1673ffffffffffffffffffffffffffffffffffffffff16815260200190815260200160002081905550612b8481600760003373ffffffffffffffffffffffffffffffffffffffff1673ffffffffffffffffffffffffffffffffffffffff168152602001908152602001600020546129c290919063ffffffff16565b600760003373ffffffffffffffffffffffffffffffffffffffff1673ffffffffffffffffffffffffffffffffffffffff16815260200190815260200160002081905550612bdc816008546129c290919063ffffffff16565b6008819055503373ffffffffffffffffffffffffffffffffffffffff167f9e71bc8eea02a63969f509818f2dafb9254532904319f9dbda79b67bd34a5f3d82604051612c289190612f2d565b60405180910390a250565b612c3b6124fa565b60005b600380549050811015612d645760006002600060038481548110612c6557612c646132f8565b5b9060005260206000200160009054906101000a900473ffffffffffffffffffffffffffffffffffffffff1673ffffffffffffffffffffffffffffffffffffffff1673ffffffffffffffffffffffffffffffffffffffff1681526020019081526020016000208190555060006007600060038481548110612ce857612ce76132f8565b5b9060005260206000200160009054906101000a900473ffffffffffffffffffffffffffffffffffffffff1673ffffffffffffffffffffffffffffffffffffffff1673ffffffffffffffffffffffffffffffffffffffff168152602001908152602001600020819055508080612d5c906133e9565b915050612c3e565b506000600881905550565b600960009054906101000a900473ffffffffffffffffffffffffffffffffffffffff1673ffffffffffffffffffffffffffffffffffffffff1663a9059cbb83836040518363ffffffff1660e01b8152600401612dcc92919061355c565b6020604051808303816000875af1158015612deb573d6000803e3d6000fd5b505050506040513d601f19601f82011682018060405250810190612e0f91906134c3565b508173ffffffffffffffffffffffffffffffffffffffff167fe2403640ba68fed3a2f88b7557551d1993f84b99bb10ff833f0cf8db0c5e048682604051612e569190612f2d565b60405180910390a25050565b60008183612e709190613b70565b905092915050565b60008183612e869190613ba1565b905092915050565b6040518060800160405280600081526020016000815260200160008152602001600081525090565b600080fd5b6000819050919050565b612ece81612ebb565b8114612ed957600080fd5b50565b600081359050612eeb81612ec5565b92915050565b600060208284031215612f0757612f06612eb6565b5b6000612f1584828501612edc565b91505092915050565b612f2781612ebb565b82525050565b6000602082019050612f426000830184612f1e565b92915050565b600073ffffffffffffffffffffffffffffffffffffffff82169050919050565b6000612f7382612f48565b9050919050565b612f8381612f68565b8114612f8e57600080fd5b50565b600081359050612fa081612f7a565b92915050565b600060208284031215612fbc57612fbb612eb6565b5b6000612fca84828501612f91565b91505092915050565b60008115159050919050565b612fe881612fd3565b82525050565b60006020820190506130036000830184612fdf565b92915050565b61301281612ebb565b82525050565b60808201600082015161302e6000850182613009565b5060208201516130416020850182613009565b5060408201516130546040850182613009565b5060608201516130676060850182613009565b50505050565b60006080820190506130826000830184613018565b92915050565b6000806000606084860312156130a1576130a0612eb6565b5b60006130af86828701612edc565b93505060206130c086828701612edc565b92505060406130d186828701612edc565b9150509250925092565b6000610100820190506130f1600083018b612f1e565b6130fe602083018a612f1e565b61310b6040830189612f1e565b6131186060830188612f1e565b6131256080830187612f1e565b61313260a0830186612f1e565b61313f60c0830185612f1e565b61314c60e0830184612f1e565b9998505050505050505050565b61316281612f68565b82525050565b600060208201905061317d6000830184613159565b92915050565b60006040820190506131986000830185612f1e565b6131a56020830184612f1e565b9392505050565b600082825260208201905092915050565b7f5061757361626c653a2070617573656400000000000000000000000000000000600082015250565b60006131f36010836131ac565b91506131fe826131bd565b602082019050919050565b60006020820190508181036000830152613222816131e6565b9050919050565b7f4e6f206163746976652072657761726420706572696f6420666f756e64000000600082015250565b600061325f601d836131ac565b915061326a82613229565b602082019050919050565b6000602082019050818103600083015261328e81613252565b9050919050565b7f4e487b7100000000000000000000000000000000000000000000000000000000600052601160045260246000fd5b60006132cf82612ebb565b91506132da83612ebb565b9250828210156132ed576132ec613295565b5b828203905092915050565b7f4e487b7100000000000000000000000000000000000000000000000000000000600052603260045260246000fd5b7f496e76616c69642072657761726420706861736520696e646578000000000000600082015250565b600061335d601a836131ac565b915061336882613327565b602082019050919050565b6000602082019050818103600083015261338c81613350565b9050919050565b600061339e82612ebb565b91506133a983612ebb565b9250827fffffffffffffffffffffffffffffffffffffffffffffffffffffffffffffffff038211156133de576133dd613295565b5b828201905092915050565b60006133f482612ebb565b91507fffffffffffffffffffffffffffffffffffffffffffffffffffffffffffffffff820361342657613425613295565b5b600182019050919050565b7f4e487b7100000000000000000000000000000000000000000000000000000000600052603160045260246000fd5b60006060820190506134756000830186613159565b6134826020830185613159565b61348f6040830184612f1e565b949350505050565b6134a081612fd3565b81146134ab57600080fd5b50565b6000815190506134bd81613497565b92915050565b6000602082840312156134d9576134d8612eb6565b5b60006134e7848285016134ae565b91505092915050565b7f496e73756666696369656e7420746f6b656e2062616c616e6365000000000000600082015250565b6000613526601a836131ac565b9150613531826134f0565b602082019050919050565b6000602082019050818103600083015261355581613519565b9050919050565b60006040820190506135716000830185613159565b61357e6020830184612f1e565b9392505050565b7f496e76616c69642072657761726420706572696f6420616d6f756e7400000000600082015250565b60006135bb601c836131ac565b91506135c682613585565b602082019050919050565b600060208201905081810360008301526135ea816135ae565b9050919050565b7f496e76616c69642072657761726420706572696f6420696e74657276616c0000600082015250565b6000613627601e836131ac565b9150613632826135f1565b602082019050919050565b600060208201905081810360008301526136568161361a565b9050919050565b7f496e76616c696420706572696f642073746172742074696d6500000000000000600082015250565b60006136936019836131ac565b915061369e8261365d565b602082019050919050565b600060208201905081810360008301526136c281613686565b9050919050565b60006080820190506136de6000830187612f1e565b6136eb6020830186612f1e565b6136f86040830185612f1e565b6137056060830184612f1e565b95945050505050565b6000819050919050565b600061373361372e61372984612f48565b61370e565b612f48565b9050919050565b600061374582613718565b9050919050565b60006137578261373a565b9050919050565b6137678161374c565b82525050565b6000604082019050613782600083018561375e565b61378f6020830184612f1e565b9392505050565b7f4f776e61626c653a2063616c6c6572206973206e6f7420746865206f776e6572600082015250565b60006137cc6020836131ac565b91506137d782613796565b602082019050919050565b600060208201905081810360008301526137fb816137bf565b9050919050565b60008151905061381181612ec5565b92915050565b60006020828403121561382d5761382c612eb6565b5b600061383b84828501613802565b91505092915050565b7f496e76616c696420616d6f756e74000000000000000000000000000000000000600082015250565b600061387a600e836131ac565b915061388582613844565b602082019050919050565b600060208201905081810360008301526138a98161386d565b9050919050565b60006040820190506138c56000830185613159565b6138d26020830184613159565b9392505050565b7f496e73756666696369656e7420616c6c6f77616e636500000000000000000000600082015250565b600061390f6016836131ac565b915061391a826138d9565b602082019050919050565b6000602082019050818103600083015261393e81613902565b9050919050565b7f4f776e61626c653a206e6577206f776e657220697320746865207a65726f206160008201527f6464726573730000000000000000000000000000000000000000000000000000602082015250565b60006139a16026836131ac565b91506139ac82613945565b604082019050919050565b600060208201905081810360008301526139d081613994565b9050919050565b7f52657761726420646973747269627574696f6e2073686f756c64206265206d6f60008201527f6e6f746f6e6963616c6c7920696e6372656173696e6700000000000000000000602082015250565b6000613a336036836131ac565b9150613a3e826139d7565b604082019050919050565b60006020820190508181036000830152613a6281613a26565b9050919050565b7f4f6e6c792044414f2063616e2065786563757465000000000000000000000000600082015250565b6000613a9f6014836131ac565b9150613aaa82613a69565b602082019050919050565b60006020820190508181036000830152613ace81613a92565b9050919050565b7f5061757361626c653a206e6f7420706175736564000000000000000000000000600082015250565b6000613b0b6014836131ac565b9150613b1682613ad5565b602082019050919050565b60006020820190508181036000830152613b3a81613afe565b9050919050565b7f4e487b7100000000000000000000000000000000000000000000000000000000600052601260045260246000fd5b6000613b7b82612ebb565b9150613b8683612ebb565b925082613b9657613b95613b41565b5b828204905092915050565b6000613bac82612ebb565b9150613bb783612ebb565b9250817fffffffffffffffffffffffffffffffffffffffffffffffffffffffffffffffff0483118215151615613bf057613bef613295565b5b82820290509291505056fea26469706673582212205f232d8063b4a1d09459cd16f63ba2e1b417dd27a3f2f79fa8ed1548ba7f5a2e64736f6c634300080d0033",
  "immutableReferences": {},
  "source": "// SPDX-License-Identifier: MIT\npragma solidity ^0.8.0;\n\nimport \"./StakingRewardPool.sol\";\n\ncontract FastFoodPool is StakingRewardPool {\n  constructor(address _rewardToken, address _lpToken) StakingRewardPool(_rewardToken, _lpToken) {\n    rewardToken = IERC20(_rewardToken);\n  }\n}\n",
  "sourcePath": "/Users/chris/workspace/ratalert/ratalert-lp/contracts/FastFoodPool.sol",
  "compiler": {
    "name": "solc",
    "version": "0.8.13+commit.abaa5c0e.Emscripten.clang"
  },
  "schemaVersion": "3.4.7",
  "updatedAt": "2022-05-22T11:30:59.329Z",
  "networkType": "ethereum",
  "devdoc": {
    "kind": "dev",
    "methods": {
      "owner()": {
        "details": "Returns the address of the current owner."
      },
      "paused()": {
        "details": "Returns true if the contract is paused, and false otherwise."
      },
      "renounceOwnership()": {
        "details": "Leaves the contract without owner. It will not be possible to call `onlyOwner` functions anymore. Can only be called by the current owner. NOTE: Renouncing ownership will leave the contract without an owner, thereby removing any functionality that is only available to the owner."
      },
      "transferOwnership(address)": {
        "details": "Transfers ownership of the contract to a new account (`newOwner`). Can only be called by the current owner."
      }
    },
    "version": 1
  },
  "userdoc": {
    "kind": "user",
    "methods": {
      "reset()": {
        "notice": "Reset user balances and stakes"
      }
    },
    "version": 1
  }
}