{
  "contractName": "GourmetFoodPool",
  "abi": [
    {
      "inputs": [
        {
          "internalType": "address",
          "name": "_rewardToken",
          "type": "address"
        },
        {
          "internalType": "address",
          "name": "_lpToken",
          "type": "address"
        }
      ],
      "stateMutability": "nonpayable",
      "type": "constructor"
    },
    {
      "anonymous": false,
      "inputs": [
        {
          "indexed": true,
          "internalType": "address",
          "name": "user",
          "type": "address"
        },
        {
          "indexed": false,
          "internalType": "uint256",
          "name": "periodId",
          "type": "uint256"
        },
        {
          "indexed": false,
          "internalType": "uint256",
          "name": "reward",
          "type": "uint256"
        }
      ],
      "name": "Claimed",
      "type": "event"
    },
    {
      "anonymous": false,
      "inputs": [
        {
          "indexed": true,
          "internalType": "address",
          "name": "user",
          "type": "address"
        },
        {
          "indexed": false,
          "internalType": "uint256",
          "name": "amount",
          "type": "uint256"
        }
      ],
      "name": "Deposited",
      "type": "event"
    },
    {
      "anonymous": false,
      "inputs": [
        {
          "indexed": true,
          "internalType": "address",
          "name": "previousOwner",
          "type": "address"
        },
        {
          "indexed": true,
          "internalType": "address",
          "name": "newOwner",
          "type": "address"
        }
      ],
      "name": "OwnershipTransferred",
      "type": "event"
    },
    {
      "anonymous": false,
      "inputs": [
        {
          "indexed": false,
          "internalType": "address",
          "name": "account",
          "type": "address"
        }
      ],
      "name": "Paused",
      "type": "event"
    },
    {
      "anonymous": false,
      "inputs": [
        {
          "indexed": true,
          "internalType": "address",
          "name": "user",
          "type": "address"
        },
        {
          "indexed": false,
          "internalType": "uint256",
          "name": "reward",
          "type": "uint256"
        }
      ],
      "name": "RewardPaid",
      "type": "event"
    },
    {
      "anonymous": false,
      "inputs": [
        {
          "indexed": false,
          "internalType": "uint256",
          "name": "id",
          "type": "uint256"
        },
        {
          "indexed": false,
          "internalType": "uint256",
          "name": "reward",
          "type": "uint256"
        },
        {
          "indexed": false,
          "internalType": "uint256",
          "name": "from",
          "type": "uint256"
        },
        {
          "indexed": false,
          "internalType": "uint256",
          "name": "to",
          "type": "uint256"
        }
      ],
      "name": "RewardPeriodCreated",
      "type": "event"
    },
    {
      "anonymous": false,
      "inputs": [
        {
          "indexed": true,
          "internalType": "address",
          "name": "user",
          "type": "address"
        },
        {
          "indexed": false,
          "internalType": "uint256",
          "name": "amount",
          "type": "uint256"
        }
      ],
      "name": "Staked",
      "type": "event"
    },
    {
      "anonymous": false,
      "inputs": [
        {
          "indexed": true,
          "internalType": "address",
          "name": "user",
          "type": "address"
        },
        {
          "indexed": false,
          "internalType": "uint256",
          "name": "amount",
          "type": "uint256"
        }
      ],
      "name": "UnStaked",
      "type": "event"
    },
    {
      "anonymous": false,
      "inputs": [
        {
          "indexed": false,
          "internalType": "address",
          "name": "account",
          "type": "address"
        }
      ],
      "name": "Unpaused",
      "type": "event"
    },
    {
      "anonymous": false,
      "inputs": [
        {
          "indexed": true,
          "internalType": "address",
          "name": "user",
          "type": "address"
        },
        {
          "indexed": false,
          "internalType": "uint256",
          "name": "amount",
          "type": "uint256"
        }
      ],
      "name": "Withdrawn",
      "type": "event"
    },
    {
      "inputs": [
        {
          "internalType": "address",
          "name": "",
          "type": "address"
        }
      ],
      "name": "balances",
      "outputs": [
        {
          "internalType": "uint256",
          "name": "",
          "type": "uint256"
        }
      ],
      "stateMutability": "view",
      "type": "function",
      "constant": true
    },
    {
      "inputs": [],
      "name": "claimReward",
      "outputs": [],
      "stateMutability": "nonpayable",
      "type": "function"
    },
    {
      "inputs": [],
      "name": "claimableReward",
      "outputs": [
        {
          "internalType": "uint256",
          "name": "pending",
          "type": "uint256"
        }
      ],
      "stateMutability": "view",
      "type": "function",
      "constant": true
    },
    {
      "inputs": [
        {
          "internalType": "uint256",
          "name": "index",
          "type": "uint256"
        }
      ],
      "name": "deleteRewardPeriod",
      "outputs": [],
      "stateMutability": "nonpayable",
      "type": "function"
    },
    {
      "inputs": [
        {
          "internalType": "uint256",
          "name": "amount",
          "type": "uint256"
        }
      ],
      "name": "deposit",
      "outputs": [],
      "stateMutability": "nonpayable",
      "type": "function"
    },
    {
      "inputs": [
        {
          "internalType": "uint256",
          "name": "amount",
          "type": "uint256"
        }
      ],
      "name": "depositAndStartStake",
      "outputs": [],
      "stateMutability": "nonpayable",
      "type": "function"
    },
    {
      "inputs": [
        {
          "internalType": "uint256",
          "name": "amount",
          "type": "uint256"
        }
      ],
      "name": "depositReward",
      "outputs": [
        {
          "internalType": "bool",
          "name": "success",
          "type": "bool"
        }
      ],
      "stateMutability": "nonpayable",
      "type": "function"
    },
    {
      "inputs": [
        {
          "internalType": "uint256",
          "name": "amount",
          "type": "uint256"
        }
      ],
      "name": "endStake",
      "outputs": [],
      "stateMutability": "nonpayable",
      "type": "function"
    },
    {
      "inputs": [
        {
          "internalType": "uint256",
          "name": "amount",
          "type": "uint256"
        }
      ],
      "name": "endStakeAndWithdraw",
      "outputs": [],
      "stateMutability": "nonpayable",
      "type": "function"
    },
    {
      "inputs": [],
      "name": "getBalance",
      "outputs": [
        {
          "internalType": "uint256",
          "name": "",
          "type": "uint256"
        }
      ],
      "stateMutability": "view",
      "type": "function",
      "constant": true
    },
    {
      "inputs": [],
      "name": "getClaimStats",
      "outputs": [
        {
          "internalType": "uint256",
          "name": "",
          "type": "uint256"
        },
        {
          "internalType": "uint256",
          "name": "",
          "type": "uint256"
        }
      ],
      "stateMutability": "view",
      "type": "function",
      "constant": true
    },
    {
      "inputs": [],
      "name": "getCurrentRewardPeriodId",
      "outputs": [
        {
          "internalType": "uint256",
          "name": "",
          "type": "uint256"
        }
      ],
      "stateMutability": "view",
      "type": "function",
      "constant": true
    },
    {
      "inputs": [],
      "name": "getRewardPeriodsCount",
      "outputs": [
        {
          "internalType": "uint256",
          "name": "",
          "type": "uint256"
        }
      ],
      "stateMutability": "view",
      "type": "function",
      "constant": true
    },
    {
      "inputs": [],
      "name": "getRewardsStats",
      "outputs": [
        {
          "components": [
            {
              "internalType": "uint256",
              "name": "claimableRewards",
              "type": "uint256"
            },
            {
              "internalType": "uint256",
              "name": "rewardsPaid",
              "type": "uint256"
            },
            {
              "internalType": "uint256",
              "name": "rewardRate",
              "type": "uint256"
            },
            {
              "internalType": "uint256",
              "name": "totalRewardsPaid",
              "type": "uint256"
            }
          ],
          "internalType": "struct StakingRewardPool.RewardsStats",
          "name": "",
          "type": "tuple"
        }
      ],
      "stateMutability": "view",
      "type": "function",
      "constant": true
    },
    {
      "inputs": [],
      "name": "getStakedBalance",
      "outputs": [
        {
          "internalType": "uint256",
          "name": "",
          "type": "uint256"
        }
      ],
      "stateMutability": "view",
      "type": "function",
      "constant": true
    },
    {
      "inputs": [
        {
          "internalType": "uint256",
          "name": "reward",
          "type": "uint256"
        },
        {
          "internalType": "uint256",
          "name": "from",
          "type": "uint256"
        },
        {
          "internalType": "uint256",
          "name": "to",
          "type": "uint256"
        }
      ],
      "name": "newRewardPeriod",
      "outputs": [],
      "stateMutability": "nonpayable",
      "type": "function"
    },
    {
      "inputs": [],
      "name": "owner",
      "outputs": [
        {
          "internalType": "address",
          "name": "",
          "type": "address"
        }
      ],
      "stateMutability": "view",
      "type": "function",
      "constant": true
    },
    {
      "inputs": [],
      "name": "pause",
      "outputs": [],
      "stateMutability": "nonpayable",
      "type": "function"
    },
    {
      "inputs": [],
      "name": "paused",
      "outputs": [
        {
          "internalType": "bool",
          "name": "",
          "type": "bool"
        }
      ],
      "stateMutability": "view",
      "type": "function",
      "constant": true
    },
    {
      "inputs": [],
      "name": "renounceOwnership",
      "outputs": [],
      "stateMutability": "nonpayable",
      "type": "function"
    },
    {
      "inputs": [],
      "name": "reset",
      "outputs": [],
      "stateMutability": "nonpayable",
      "type": "function"
    },
    {
      "inputs": [],
      "name": "rewardBalance",
      "outputs": [
        {
          "internalType": "uint256",
          "name": "",
          "type": "uint256"
        }
      ],
      "stateMutability": "view",
      "type": "function",
      "constant": true
    },
    {
      "inputs": [
        {
          "internalType": "uint256",
          "name": "",
          "type": "uint256"
        }
      ],
      "name": "rewardPeriods",
      "outputs": [
        {
          "internalType": "uint256",
          "name": "id",
          "type": "uint256"
        },
        {
          "internalType": "uint256",
          "name": "reward",
          "type": "uint256"
        },
        {
          "internalType": "uint256",
          "name": "from",
          "type": "uint256"
        },
        {
          "internalType": "uint256",
          "name": "to",
          "type": "uint256"
        },
        {
          "internalType": "uint256",
          "name": "lastUpdated",
          "type": "uint256"
        },
        {
          "internalType": "uint256",
          "name": "totalStaked",
          "type": "uint256"
        },
        {
          "internalType": "uint256",
          "name": "rewardPerTokenStaked",
          "type": "uint256"
        },
        {
          "internalType": "uint256",
          "name": "totalRewardsPaid",
          "type": "uint256"
        }
      ],
      "stateMutability": "view",
      "type": "function",
      "constant": true
    },
    {
      "inputs": [
        {
          "internalType": "address",
          "name": "_dao",
          "type": "address"
        }
      ],
      "name": "setDao",
      "outputs": [],
      "stateMutability": "nonpayable",
      "type": "function"
    },
    {
      "inputs": [
        {
          "internalType": "uint256",
          "name": "",
          "type": "uint256"
        }
      ],
      "name": "stakers",
      "outputs": [
        {
          "internalType": "address",
          "name": "",
          "type": "address"
        }
      ],
      "stateMutability": "view",
      "type": "function",
      "constant": true
    },
    {
      "inputs": [
        {
          "internalType": "address",
          "name": "",
          "type": "address"
        }
      ],
      "name": "stakes",
      "outputs": [
        {
          "internalType": "uint256",
          "name": "",
          "type": "uint256"
        }
      ],
      "stateMutability": "view",
      "type": "function",
      "constant": true
    },
    {
      "inputs": [
        {
          "internalType": "uint256",
          "name": "amount",
          "type": "uint256"
        }
      ],
      "name": "startStake",
      "outputs": [],
      "stateMutability": "nonpayable",
      "type": "function"
    },
    {
      "inputs": [],
      "name": "totalStakes",
      "outputs": [
        {
          "internalType": "uint256",
          "name": "",
          "type": "uint256"
        }
      ],
      "stateMutability": "view",
      "type": "function",
      "constant": true
    },
    {
      "inputs": [
        {
          "internalType": "address",
          "name": "newOwner",
          "type": "address"
        }
      ],
      "name": "transferOwnership",
      "outputs": [],
      "stateMutability": "nonpayable",
      "type": "function"
    },
    {
      "inputs": [],
      "name": "unpause",
      "outputs": [],
      "stateMutability": "nonpayable",
      "type": "function"
    },
    {
      "inputs": [
        {
          "internalType": "uint256",
          "name": "amount",
          "type": "uint256"
        }
      ],
      "name": "withdraw",
      "outputs": [],
      "stateMutability": "nonpayable",
      "type": "function"
    },
    {
      "inputs": [
        {
          "internalType": "uint256",
          "name": "amount",
          "type": "uint256"
        }
      ],
      "name": "withdrawReward",
      "outputs": [
        {
          "internalType": "bool",
          "name": "success",
          "type": "bool"
        }
      ],
      "stateMutability": "nonpayable",
      "type": "function"
    }
  ],
  "bytecode": "0x60806040526000600b553480156200001657600080fd5b5060405162003f0e38038062003f0e83398181016040528101906200003c919062000282565b818181818062000061620000556200014c60201b60201c565b6200015460201b60201c565b80600160006101000a81548173ffffffffffffffffffffffffffffffffffffffff021916908373ffffffffffffffffffffffffffffffffffffffff160217905550506000600560006101000a81548160ff021916908315150217905550505081600960006101000a81548173ffffffffffffffffffffffffffffffffffffffff021916908373ffffffffffffffffffffffffffffffffffffffff160217905550505081600960006101000a81548173ffffffffffffffffffffffffffffffffffffffff021916908373ffffffffffffffffffffffffffffffffffffffff1602179055505050620002c9565b600033905090565b60008060009054906101000a900473ffffffffffffffffffffffffffffffffffffffff169050816000806101000a81548173ffffffffffffffffffffffffffffffffffffffff021916908373ffffffffffffffffffffffffffffffffffffffff1602179055508173ffffffffffffffffffffffffffffffffffffffff168173ffffffffffffffffffffffffffffffffffffffff167f8be0079c531659141344cd1fd0a4f28419497f9722a3daafe3b4186f6b6457e060405160405180910390a35050565b600080fd5b600073ffffffffffffffffffffffffffffffffffffffff82169050919050565b60006200024a826200021d565b9050919050565b6200025c816200023d565b81146200026857600080fd5b50565b6000815190506200027c8162000251565b92915050565b600080604083850312156200029c576200029b62000218565b5b6000620002ac858286016200026b565b9250506020620002bf858286016200026b565b9150509250929050565b613c3580620002d96000396000f3fe608060405234801561001057600080fd5b50600436106101f05760003560e01c80638252097d1161010f578063b88a802f116100a2578063e7181edc11610071578063e7181edc14610529578063f2fde38b14610547578063fad0138d14610563578063fd5e6dd114610581576101f0565b8063b88a802f146104db578063bf9befb1146104e5578063d826f88f14610503578063d9c5fbed1461050d576101f0565b8063aa5c3ab4116100de578063aa5c3ab414610469578063aaf6364014610487578063b51bd40f146104a3578063b6b55f25146104bf576101f0565b80638252097d146103eb5780638456cb59146104225780638da5cb5b1461042c578063a255994b1461044a576101f0565b806333b365d6116101875780635c975abb116101565780635c975abb146103895780636637b882146103a7578063715018a6146103c357806376965867146103cd576101f0565b806333b365d6146103155780633f4ba83a14610331578063523a3f081461033b5780635865b9111461036b576101f0565b80631e2720ff116101c35780631e2720ff1461027b57806327e235e3146102ab5780632ad7b6a9146102db5780632e1a7d4d146102f9576101f0565b80630cbe28d6146101f557806312065fe01461021157806316934fc41461022f57806318e01ec51461025f575b600080fd5b61020f600480360381019061020a9190612ef4565b6105b1565b005b6102196106b7565b6040516102269190612f30565b60405180910390f35b61024960048036038101906102449190612fa9565b6106fe565b6040516102569190612f30565b60405180910390f35b61027960048036038101906102749190612ef4565b610716565b005b61029560048036038101906102909190612ef4565b6108b5565b6040516102a29190612ff1565b60405180910390f35b6102c560048036038101906102c09190612fa9565b61098a565b6040516102d29190612f30565b60405180910390f35b6102e36109a2565b6040516102f09190613070565b60405180910390f35b610313600480360381019061030e9190612ef4565b610aba565b005b61032f600480360381019061032a919061308b565b610cc3565b005b610339611012565b005b61035560048036038101906103509190612ef4565b611024565b6040516103629190612ff1565b60405180910390f35b6103736110f7565b6040516103809190612f30565b60405180910390f35b610391611146565b60405161039e9190612ff1565b60405180910390f35b6103c160048036038101906103bc9190612fa9565b61115d565b005b6103cb61121d565b005b6103d56112a5565b6040516103e29190612f30565b60405180910390f35b61040560048036038101906104009190612ef4565b6112ec565b6040516104199897969594939291906130de565b60405180910390f35b61042a611344565b005b610434611356565b604051610441919061316b565b60405180910390f35b61045261137f565b604051610460929190613186565b60405180910390f35b61047161151f565b60405161047e9190612f30565b60405180910390f35b6104a1600480360381019061049c9190612ef4565b6115c2565b005b6104bd60048036038101906104b89190612ef4565b61161f565b005b6104d960048036038101906104d49190612ef4565b61171d565b005b6104e3611ad6565b005b6104ed611b30565b6040516104fa9190612f30565b60405180910390f35b61050b611b36565b005b61052760048036038101906105229190612ef4565b611d9d565b005b610531611dfa565b60405161053e9190612f30565b60405180910390f35b610561600480360381019061055c9190612fa9565b611e0c565b005b61056b611f04565b6040516105789190612f30565b60405180910390f35b61059b60048036038101906105969190612ef4565b611f0e565b6040516105a8919061316b565b60405180910390f35b6105b9611146565b156105f9576040517f08c379a00000000000000000000000000000000000000000000000000000000081526004016105f09061320c565b60405180910390fd5b60006106036110f7565b905060008111610648576040517f08c379a000000000000000000000000000000000000000000000000000000000815260040161063f90613278565b60405180910390fd5b610650611f4d565b61065982612107565b6000600a60018361066a91906132c7565b8154811061067b5761067a6132fb565b5b906000526020600020906008020190506106a283826005015461236790919063ffffffff16565b81600501819055506106b261237d565b505050565b6000600260003373ffffffffffffffffffffffffffffffffffffffff1673ffffffffffffffffffffffffffffffffffffffff16815260200190815260200160002054905090565b60076020528060005260406000206000915090505481565b61071e6124fc565b80600a8054905011610765576040517f08c379a000000000000000000000000000000000000000000000000000000000815260040161075c90613376565b60405180910390fd5b60008190505b6001600a8054905061077d91906132c7565b81101561083a57600a6001826107939190613396565b815481106107a4576107a36132fb565b5b9060005260206000209060080201600a82815481106107c6576107c56132fb565b5b906000526020600020906008020160008201548160000155600182015481600101556002820154816002015560038201548160030155600482015481600401556005820154816005015560068201548160060155600782015481600701559050508080610832906133ec565b91505061076b565b50600a80548061084d5761084c613435565b5b6001900381819060005260206000209060080201600080820160009055600182016000905560028201600090556003820160009055600482016000905560058201600090556006820160009055600782016000905550509055600a80549050600b8190555050565b60006108bf6124fc565b600960009054906101000a900473ffffffffffffffffffffffffffffffffffffffff1673ffffffffffffffffffffffffffffffffffffffff166323b872dd600560019054906101000a900473ffffffffffffffffffffffffffffffffffffffff1630856040518463ffffffff1660e01b815260040161094093929190613464565b6020604051808303816000875af115801561095f573d6000803e3d6000fd5b505050506040513d601f19601f8201168201806040525081019061098391906134c7565b9050919050565b60026020528060005260406000206000915090505481565b6109aa612e91565b60006109b46110f7565b905060006040518060800160405280600081526020016000815260200160008152602001600081525090506000821115610a98576000600a6001846109f991906132c7565b81548110610a0a57610a096132fb565b5b906000526020600020906008020160405180610100016040529081600082015481526020016001820154815260200160028201548152602001600382015481526020016004820154815260200160058201548152602001600682015481526020016007820154815250509050610a7f8161258e565b8260400181815250508060e00151826060018181525050505b610aa061137f565b826000018360200182815250828152505050809250505090565b80600260003373ffffffffffffffffffffffffffffffffffffffff1673ffffffffffffffffffffffffffffffffffffffff168152602001908152602001600020541015610b3c576040517f08c379a0000000000000000000000000000000000000000000000000000000008152600401610b3390613540565b60405180910390fd5b610b8e81600260003373ffffffffffffffffffffffffffffffffffffffff1673ffffffffffffffffffffffffffffffffffffffff1681526020019081526020016000205461236790919063ffffffff16565b600260003373ffffffffffffffffffffffffffffffffffffffff1673ffffffffffffffffffffffffffffffffffffffff16815260200190815260200160002081905550600160009054906101000a900473ffffffffffffffffffffffffffffffffffffffff1673ffffffffffffffffffffffffffffffffffffffff1663a9059cbb33836040518363ffffffff1660e01b8152600401610c2e929190613560565b6020604051808303816000875af1158015610c4d573d6000803e3d6000fd5b505050506040513d601f19601f82011682018060405250810190610c7191906134c7565b503373ffffffffffffffffffffffffffffffffffffffff167f7084f5476618d8e60b11ef0d7d3f06914655adb8793e28ff7f018d4c76d505d582604051610cb89190612f30565b60405180910390a250565b610ccb6124fc565b60008311610d0e576040517f08c379a0000000000000000000000000000000000000000000000000000000008152600401610d05906135d5565b60405180910390fd5b8181118015610d1c57504281115b610d5b576040517f08c379a0000000000000000000000000000000000000000000000000000000008152600401610d5290613641565b60405180910390fd5b600080600a8054905014610da557600a6001600a80549050610d7d91906132c7565b81548110610d8e57610d8d6132fb565b5b906000526020600020906008020160050154610da8565b60005b90506000600a805490501480610df35750600a6001600a80549050610dcd91906132c7565b81548110610dde57610ddd6132fb565b5b90600052602060002090600802016003015483115b610e32576040517f08c379a0000000000000000000000000000000000000000000000000000000008152600401610e29906136ad565b60405180910390fd5b600a6040518061010001604052806001600a80549050610e529190613396565b81526020018681526020018581526020018481526020014281526020018381526020016000815260200160008152509080600181540180825580915050600190039060005260206000209060080201600090919091909150600082015181600001556020820151816001015560408201518160020155606082015181600301556080820151816004015560a0820151816005015560c0820151816006015560e082015181600701555050600a80549050600b81905550600960009054906101000a900473ffffffffffffffffffffffffffffffffffffffff1673ffffffffffffffffffffffffffffffffffffffff166323b872dd600560019054906101000a900473ffffffffffffffffffffffffffffffffffffffff1630876040518463ffffffff1660e01b8152600401610f8993929190613464565b6020604051808303816000875af1158015610fa8573d6000803e3d6000fd5b505050506040513d601f19601f82011682018060405250810190610fcc91906134c7565b507f680cc3462f59d3f841fa14e5c8799872d1ef44dd1696d2f58d458b90b6eaac99600b5485858560405161100494939291906136cd565b60405180910390a150505050565b61101a6124fc565b6110226125cd565b565b600061102e6124fc565b600960009054906101000a900473ffffffffffffffffffffffffffffffffffffffff1673ffffffffffffffffffffffffffffffffffffffff1663a9059cbb600560019054906101000a900473ffffffffffffffffffffffffffffffffffffffff16846040518363ffffffff1660e01b81526004016110ad929190613771565b6020604051808303816000875af11580156110cc573d6000803e3d6000fd5b505050506040513d601f19601f820116820180604052508101906110f091906134c7565b9050919050565b600080600b54141561110c5760009050611143565b600a6001600b5461111d91906132c7565b8154811061112e5761112d6132fb565b5b90600052602060002090600802016000015490505b90565b6000600560009054906101000a900460ff16905090565b61116561266f565b73ffffffffffffffffffffffffffffffffffffffff16611183611356565b73ffffffffffffffffffffffffffffffffffffffff16146111d9576040517f08c379a00000000000000000000000000000000000000000000000000000000081526004016111d0906137e6565b60405180910390fd5b80600560016101000a81548173ffffffffffffffffffffffffffffffffffffffff021916908373ffffffffffffffffffffffffffffffffffffffff16021790555050565b61122561266f565b73ffffffffffffffffffffffffffffffffffffffff16611243611356565b73ffffffffffffffffffffffffffffffffffffffff1614611299576040517f08c379a0000000000000000000000000000000000000000000000000000000008152600401611290906137e6565b60405180910390fd5b6112a36000612677565b565b6000600760003373ffffffffffffffffffffffffffffffffffffffff1673ffffffffffffffffffffffffffffffffffffffff16815260200190815260200160002054905090565b600a81815481106112fc57600080fd5b90600052602060002090600802016000915090508060000154908060010154908060020154908060030154908060040154908060050154908060060154908060070154905088565b61134c6124fc565b61135461273b565b565b60008060009054906101000a900473ffffffffffffffffffffffffffffffffffffffff16905090565b60008060008060005b600a80549050811015611512576000600a82815481106113ab576113aa6132fb565b5b9060005260206000209060080201604051806101000160405290816000820154815260200160018201548152602001600282015481526020016003820154815260200160048201548152602001600582015481526020016006820154815260200160078201548152505090506000611422826127de565b905060006114348360000151836128a1565b90506000600c60003373ffffffffffffffffffffffffffffffffffffffff1673ffffffffffffffffffffffffffffffffffffffff168152602001908152602001600020600085600001518152602001908152602001600020604051806060016040529081600082015481526020016001820154815260200160028201548152505090506114e06114d18383602001516129c590919063ffffffff16565b886129c590919063ffffffff16565b96506114f98160400151876129c590919063ffffffff16565b955050505050808061150a906133ec565b915050611388565b5081819350935050509091565b6000600960009054906101000a900473ffffffffffffffffffffffffffffffffffffffff1673ffffffffffffffffffffffffffffffffffffffff166370a08231306040518263ffffffff1660e01b815260040161157c919061316b565b602060405180830381865afa158015611599573d6000803e3d6000fd5b505050506040513d601f19601f820116820180604052508101906115bd919061381b565b905090565b6115ca611146565b1561160a576040517f08c379a00000000000000000000000000000000000000000000000000000000081526004016116019061320c565b60405180910390fd5b611613816105b1565b61161c81610aba565b50565b611627611146565b15611667576040517f08c379a000000000000000000000000000000000000000000000000000000000815260040161165e9061320c565b60405180910390fd5b60006116716110f7565b9050600081116116b6576040517f08c379a00000000000000000000000000000000000000000000000000000000081526004016116ad90613278565b60405180910390fd5b6116be611f4d565b6116c7826129db565b6000600a6001836116d891906132c7565b815481106116e9576116e86132fb565b5b906000526020600020906008020190506117108382600501546129c590919063ffffffff16565b8160050181905550505050565b60008111611760576040517f08c379a000000000000000000000000000000000000000000000000000000000815260040161175790613894565b60405180910390fd5b80600160009054906101000a900473ffffffffffffffffffffffffffffffffffffffff1673ffffffffffffffffffffffffffffffffffffffff1663dd62ed3e33306040518363ffffffff1660e01b81526004016117be9291906138b4565b602060405180830381865afa1580156117db573d6000803e3d6000fd5b505050506040513d601f19601f820116820180604052508101906117ff919061381b565b1015611840576040517f08c379a000000000000000000000000000000000000000000000000000000000815260040161183790613929565b60405180910390fd5b61189281600260003373ffffffffffffffffffffffffffffffffffffffff1673ffffffffffffffffffffffffffffffffffffffff168152602001908152602001600020546129c590919063ffffffff16565b600260003373ffffffffffffffffffffffffffffffffffffffff1673ffffffffffffffffffffffffffffffffffffffff16815260200190815260200160002081905550600460003373ffffffffffffffffffffffffffffffffffffffff1673ffffffffffffffffffffffffffffffffffffffff16815260200190815260200160002060009054906101000a900460ff166119e2576001600460003373ffffffffffffffffffffffffffffffffffffffff1673ffffffffffffffffffffffffffffffffffffffff16815260200190815260200160002060006101000a81548160ff0219169083151502179055506003339080600181540180825580915050600190039060005260206000200160009091909190916101000a81548173ffffffffffffffffffffffffffffffffffffffff021916908373ffffffffffffffffffffffffffffffffffffffff1602179055505b600160009054906101000a900473ffffffffffffffffffffffffffffffffffffffff1673ffffffffffffffffffffffffffffffffffffffff166323b872dd3330846040518463ffffffff1660e01b8152600401611a4193929190613464565b6020604051808303816000875af1158015611a60573d6000803e3d6000fd5b505050506040513d601f19601f82011682018060405250810190611a8491906134c7565b503373ffffffffffffffffffffffffffffffffffffffff167f2da466a7b24304f47e87fa2e1e5a81b9831ce54fec19055ce277ca2f39ba42c482604051611acb9190612f30565b60405180910390a250565b611ade611146565b15611b1e576040517f08c379a0000000000000000000000000000000000000000000000000000000008152600401611b159061320c565b60405180910390fd5b611b26611f4d565b611b2e61237d565b565b60085481565b611b3e6124fc565b60005b600a80549050811015611bc657600a8181548110611b6257611b616132fb565b5b9060005260206000209060080201600080820160009055600182016000905560028201600090556003820160009055600482016000905560058201600090556006820160009055600782016000905550508080611bbe906133ec565b915050611b41565b506000600b8190555060005b600380549050811015611ce45760005b600a80549050811015611cd057600c600060038481548110611c0757611c066132fb565b5b9060005260206000200160009054906101000a900473ffffffffffffffffffffffffffffffffffffffff1673ffffffffffffffffffffffffffffffffffffffff1673ffffffffffffffffffffffffffffffffffffffff1681526020019081526020016000206000600a8381548110611c8257611c816132fb565b5b90600052602060002090600802016000015481526020019081526020016000206000808201600090556001820160009055600282016000905550508080611cc8906133ec565b915050611be2565b508080611cdc906133ec565b915050611bd2565b506000611cef61151f565b9050600960009054906101000a900473ffffffffffffffffffffffffffffffffffffffff1673ffffffffffffffffffffffffffffffffffffffff1663a9059cbb33836040518363ffffffff1660e01b8152600401611d4e929190613560565b6020604051808303816000875af1158015611d6d573d6000803e3d6000fd5b505050506040513d601f19601f82011682018060405250810190611d9191906134c7565b50611d9a612c36565b50565b611da5611146565b15611de5576040517f08c379a0000000000000000000000000000000000000000000000000000000008152600401611ddc9061320c565b60405180910390fd5b611dee8161171d565b611df78161161f565b50565b6000611e0461137f565b508091505090565b611e1461266f565b73ffffffffffffffffffffffffffffffffffffffff16611e32611356565b73ffffffffffffffffffffffffffffffffffffffff1614611e88576040517f08c379a0000000000000000000000000000000000000000000000000000000008152600401611e7f906137e6565b60405180910390fd5b600073ffffffffffffffffffffffffffffffffffffffff168173ffffffffffffffffffffffffffffffffffffffff161415611ef8576040517f08c379a0000000000000000000000000000000000000000000000000000000008152600401611eef906139bb565b60405180910390fd5b611f0181612677565b50565b6000600b54905090565b60068181548110611f1e57600080fd5b906000526020600020016000915054906101000a900473ffffffffffffffffffffffffffffffffffffffff1681565b60005b600a80549050811015612104576000600a8281548110611f7357611f726132fb565b5b906000526020600020906008020190506000611fea8260405180610100016040529081600082015481526020016001820154815260200160028201548152602001600382015481526020016004820154815260200160058201548152602001600682015481526020016007820154815250506127de565b90506000611ffc8360000154836128a1565b90506000600c60003373ffffffffffffffffffffffffffffffffffffffff1673ffffffffffffffffffffffffffffffffffffffff168152602001908152602001600020600085600001548152602001908152602001600020905061206d8282600101546129c590919063ffffffff16565b816001018190555082816000018190555083600601548310156120c5576040517f08c379a00000000000000000000000000000000000000000000000000000000081526004016120bc90613a4d565b60405180910390fd5b828460060181905550836003015442116120df57426120e5565b83600301545b84600401819055505050505080806120fc906133ec565b915050611f50565b50565b61210f611146565b1561214f576040517f08c379a00000000000000000000000000000000000000000000000000000000081526004016121469061320c565b60405180910390fd5b80600760003373ffffffffffffffffffffffffffffffffffffffff1673ffffffffffffffffffffffffffffffffffffffff1681526020019081526020016000205410156121d1576040517f08c379a00000000000000000000000000000000000000000000000000000000081526004016121c890613540565b60405180910390fd5b61222381600260003373ffffffffffffffffffffffffffffffffffffffff1673ffffffffffffffffffffffffffffffffffffffff168152602001908152602001600020546129c590919063ffffffff16565b600260003373ffffffffffffffffffffffffffffffffffffffff1673ffffffffffffffffffffffffffffffffffffffff168152602001908152602001600020819055506122b881600760003373ffffffffffffffffffffffffffffffffffffffff1673ffffffffffffffffffffffffffffffffffffffff1681526020019081526020016000205461236790919063ffffffff16565b600760003373ffffffffffffffffffffffffffffffffffffffff1673ffffffffffffffffffffffffffffffffffffffff168152602001908152602001600020819055506123108160085461236790919063ffffffff16565b6008819055503373ffffffffffffffffffffffffffffffffffffffff167f79d3df6837cc49ff0e09fd3258e6e45594e0703445bb06825e9d75156eaee8f08260405161235c9190612f30565b60405180910390a250565b6000818361237591906132c7565b905092915050565b6000805b600a805490508110156124e5576000600a82815481106123a4576123a36132fb565b5b906000526020600020906008020190506000600c60003373ffffffffffffffffffffffffffffffffffffffff1673ffffffffffffffffffffffffffffffffffffffff1681526020019081526020016000206000836000015481526020019081526020016000209050600081600101549050600081146124cf576000826001018190555061243e8183600201546129c590919063ffffffff16565b826002018190555061245d8184600701546129c590919063ffffffff16565b836007018190555061247881866129c590919063ffffffff16565b94503373ffffffffffffffffffffffffffffffffffffffff167f987d620f307ff6b94d58743cb7a7509f24071586a77759b77c2d4e29f75a2f9a8460000154836040516124c6929190613186565b60405180910390a25b50505080806124dd906133ec565b915050612381565b50600081146124f9576124f83382612d72565b5b50565b600560019054906101000a900473ffffffffffffffffffffffffffffffffffffffff1673ffffffffffffffffffffffffffffffffffffffff163373ffffffffffffffffffffffffffffffffffffffff161461258c576040517f08c379a000000000000000000000000000000000000000000000000000000000815260040161258390613ab9565b60405180910390fd5b565b6000806125ac8360400151846060015161236790919063ffffffff16565b90506125c5818460200151612e6590919063ffffffff16565b915050919050565b6125d5611146565b612614576040517f08c379a000000000000000000000000000000000000000000000000000000000815260040161260b90613b25565b60405180910390fd5b6000600560006101000a81548160ff0219169083151502179055507f5db9ee0a495bf2e6ff9c91a7834c1ba4fdd244a5e8aa4e537bd38aeae4b073aa61265861266f565b604051612665919061316b565b60405180910390a1565b600033905090565b60008060009054906101000a900473ffffffffffffffffffffffffffffffffffffffff169050816000806101000a81548173ffffffffffffffffffffffffffffffffffffffff021916908373ffffffffffffffffffffffffffffffffffffffff1602179055508173ffffffffffffffffffffffffffffffffffffffff168173ffffffffffffffffffffffffffffffffffffffff167f8be0079c531659141344cd1fd0a4f28419497f9722a3daafe3b4186f6b6457e060405160405180910390a35050565b612743611146565b15612783576040517f08c379a000000000000000000000000000000000000000000000000000000000815260040161277a9061320c565b60405180910390fd5b6001600560006101000a81548160ff0219169083151502179055507f62e78cea01bee320cd4e420270b5ea74000d11b0c9f74754ebdbfc544b05a2586127c761266f565b6040516127d4919061316b565b60405180910390a1565b6000806127ea8361258e565b90506000836060015142116127ff5742612805565b83606001515b9050600061282085608001518361236790919063ffffffff16565b905060006128378483612e7b90919063ffffffff16565b905060008660c00151905060008760a00151146128945761289161287e8860a00151612870633b9aca0086612e7b90919063ffffffff16565b612e6590919063ffffffff16565b8860c001516129c590919063ffffffff16565b90505b8095505050505050919050565b6000808214156128b457600090506129bf565b6000600760003373ffffffffffffffffffffffffffffffffffffffff1673ffffffffffffffffffffffffffffffffffffffff1681526020019081526020016000205490506000600c60003373ffffffffffffffffffffffffffffffffffffffff1673ffffffffffffffffffffffffffffffffffffffff16815260200190815260200160002060008681526020019081526020016000206040518060600160405290816000820154815260200160018201548152602001600282015481525050905060006129b6633b9aca006129a861299985600001518961236790919063ffffffff16565b86612e7b90919063ffffffff16565b612e6590919063ffffffff16565b90508093505050505b92915050565b600081836129d39190613396565b905092915050565b60008111612a1e576040517f08c379a0000000000000000000000000000000000000000000000000000000008152600401612a1590613894565b60405180910390fd5b80600260003373ffffffffffffffffffffffffffffffffffffffff1673ffffffffffffffffffffffffffffffffffffffff168152602001908152602001600020541015612aa0576040517f08c379a0000000000000000000000000000000000000000000000000000000008152600401612a9790613540565b60405180910390fd5b612af281600260003373ffffffffffffffffffffffffffffffffffffffff1673ffffffffffffffffffffffffffffffffffffffff1681526020019081526020016000205461236790919063ffffffff16565b600260003373ffffffffffffffffffffffffffffffffffffffff1673ffffffffffffffffffffffffffffffffffffffff16815260200190815260200160002081905550612b8781600760003373ffffffffffffffffffffffffffffffffffffffff1673ffffffffffffffffffffffffffffffffffffffff168152602001908152602001600020546129c590919063ffffffff16565b600760003373ffffffffffffffffffffffffffffffffffffffff1673ffffffffffffffffffffffffffffffffffffffff16815260200190815260200160002081905550612bdf816008546129c590919063ffffffff16565b6008819055503373ffffffffffffffffffffffffffffffffffffffff167f9e71bc8eea02a63969f509818f2dafb9254532904319f9dbda79b67bd34a5f3d82604051612c2b9190612f30565b60405180910390a250565b612c3e6124fc565b60005b600380549050811015612d675760006002600060038481548110612c6857612c676132fb565b5b9060005260206000200160009054906101000a900473ffffffffffffffffffffffffffffffffffffffff1673ffffffffffffffffffffffffffffffffffffffff1673ffffffffffffffffffffffffffffffffffffffff1681526020019081526020016000208190555060006007600060038481548110612ceb57612cea6132fb565b5b9060005260206000200160009054906101000a900473ffffffffffffffffffffffffffffffffffffffff1673ffffffffffffffffffffffffffffffffffffffff1673ffffffffffffffffffffffffffffffffffffffff168152602001908152602001600020819055508080612d5f906133ec565b915050612c41565b506000600881905550565b600960009054906101000a900473ffffffffffffffffffffffffffffffffffffffff1673ffffffffffffffffffffffffffffffffffffffff1663a9059cbb83836040518363ffffffff1660e01b8152600401612dcf929190613560565b6020604051808303816000875af1158015612dee573d6000803e3d6000fd5b505050506040513d601f19601f82011682018060405250810190612e1291906134c7565b508173ffffffffffffffffffffffffffffffffffffffff167fe2403640ba68fed3a2f88b7557551d1993f84b99bb10ff833f0cf8db0c5e048682604051612e599190612f30565b60405180910390a25050565b60008183612e739190613b74565b905092915050565b60008183612e899190613ba5565b905092915050565b6040518060800160405280600081526020016000815260200160008152602001600081525090565b600080fd5b6000819050919050565b612ed181612ebe565b8114612edc57600080fd5b50565b600081359050612eee81612ec8565b92915050565b600060208284031215612f0a57612f09612eb9565b5b6000612f1884828501612edf565b91505092915050565b612f2a81612ebe565b82525050565b6000602082019050612f456000830184612f21565b92915050565b600073ffffffffffffffffffffffffffffffffffffffff82169050919050565b6000612f7682612f4b565b9050919050565b612f8681612f6b565b8114612f9157600080fd5b50565b600081359050612fa381612f7d565b92915050565b600060208284031215612fbf57612fbe612eb9565b5b6000612fcd84828501612f94565b91505092915050565b60008115159050919050565b612feb81612fd6565b82525050565b60006020820190506130066000830184612fe2565b92915050565b61301581612ebe565b82525050565b608082016000820151613031600085018261300c565b506020820151613044602085018261300c565b506040820151613057604085018261300c565b50606082015161306a606085018261300c565b50505050565b6000608082019050613085600083018461301b565b92915050565b6000806000606084860312156130a4576130a3612eb9565b5b60006130b286828701612edf565b93505060206130c386828701612edf565b92505060406130d486828701612edf565b9150509250925092565b6000610100820190506130f4600083018b612f21565b613101602083018a612f21565b61310e6040830189612f21565b61311b6060830188612f21565b6131286080830187612f21565b61313560a0830186612f21565b61314260c0830185612f21565b61314f60e0830184612f21565b9998505050505050505050565b61316581612f6b565b82525050565b6000602082019050613180600083018461315c565b92915050565b600060408201905061319b6000830185612f21565b6131a86020830184612f21565b9392505050565b600082825260208201905092915050565b7f5061757361626c653a2070617573656400000000000000000000000000000000600082015250565b60006131f66010836131af565b9150613201826131c0565b602082019050919050565b60006020820190508181036000830152613225816131e9565b9050919050565b7f4e6f206163746976652072657761726420706572696f6420666f756e64000000600082015250565b6000613262601d836131af565b915061326d8261322c565b602082019050919050565b6000602082019050818103600083015261329181613255565b9050919050565b7f4e487b7100000000000000000000000000000000000000000000000000000000600052601160045260246000fd5b60006132d282612ebe565b91506132dd83612ebe565b9250828210156132f0576132ef613298565b5b828203905092915050565b7f4e487b7100000000000000000000000000000000000000000000000000000000600052603260045260246000fd5b7f496e76616c69642072657761726420706861736520696e646578000000000000600082015250565b6000613360601a836131af565b915061336b8261332a565b602082019050919050565b6000602082019050818103600083015261338f81613353565b9050919050565b60006133a182612ebe565b91506133ac83612ebe565b9250827fffffffffffffffffffffffffffffffffffffffffffffffffffffffffffffffff038211156133e1576133e0613298565b5b828201905092915050565b60006133f782612ebe565b91507fffffffffffffffffffffffffffffffffffffffffffffffffffffffffffffffff82141561342a57613429613298565b5b600182019050919050565b7f4e487b7100000000000000000000000000000000000000000000000000000000600052603160045260246000fd5b6000606082019050613479600083018661315c565b613486602083018561315c565b6134936040830184612f21565b949350505050565b6134a481612fd6565b81146134af57600080fd5b50565b6000815190506134c18161349b565b92915050565b6000602082840312156134dd576134dc612eb9565b5b60006134eb848285016134b2565b91505092915050565b7f496e73756666696369656e7420746f6b656e2062616c616e6365000000000000600082015250565b600061352a601a836131af565b9150613535826134f4565b602082019050919050565b600060208201905081810360008301526135598161351d565b9050919050565b6000604082019050613575600083018561315c565b6135826020830184612f21565b9392505050565b7f496e76616c69642072657761726420706572696f6420616d6f756e7400000000600082015250565b60006135bf601c836131af565b91506135ca82613589565b602082019050919050565b600060208201905081810360008301526135ee816135b2565b9050919050565b7f496e76616c69642072657761726420706572696f6420696e74657276616c0000600082015250565b600061362b601e836131af565b9150613636826135f5565b602082019050919050565b6000602082019050818103600083015261365a8161361e565b9050919050565b7f496e76616c696420706572696f642073746172742074696d6500000000000000600082015250565b60006136976019836131af565b91506136a282613661565b602082019050919050565b600060208201905081810360008301526136c68161368a565b9050919050565b60006080820190506136e26000830187612f21565b6136ef6020830186612f21565b6136fc6040830185612f21565b6137096060830184612f21565b95945050505050565b6000819050919050565b600061373761373261372d84612f4b565b613712565b612f4b565b9050919050565b60006137498261371c565b9050919050565b600061375b8261373e565b9050919050565b61376b81613750565b82525050565b60006040820190506137866000830185613762565b6137936020830184612f21565b9392505050565b7f4f776e61626c653a2063616c6c6572206973206e6f7420746865206f776e6572600082015250565b60006137d06020836131af565b91506137db8261379a565b602082019050919050565b600060208201905081810360008301526137ff816137c3565b9050919050565b60008151905061381581612ec8565b92915050565b60006020828403121561383157613830612eb9565b5b600061383f84828501613806565b91505092915050565b7f496e76616c696420616d6f756e74000000000000000000000000000000000000600082015250565b600061387e600e836131af565b915061388982613848565b602082019050919050565b600060208201905081810360008301526138ad81613871565b9050919050565b60006040820190506138c9600083018561315c565b6138d6602083018461315c565b9392505050565b7f496e73756666696369656e7420616c6c6f77616e636500000000000000000000600082015250565b60006139136016836131af565b915061391e826138dd565b602082019050919050565b6000602082019050818103600083015261394281613906565b9050919050565b7f4f776e61626c653a206e6577206f776e657220697320746865207a65726f206160008201527f6464726573730000000000000000000000000000000000000000000000000000602082015250565b60006139a56026836131af565b91506139b082613949565b604082019050919050565b600060208201905081810360008301526139d481613998565b9050919050565b7f52657761726420646973747269627574696f6e2073686f756c64206265206d6f60008201527f6e6f746f6e6963616c6c7920696e6372656173696e6700000000000000000000602082015250565b6000613a376036836131af565b9150613a42826139db565b604082019050919050565b60006020820190508181036000830152613a6681613a2a565b9050919050565b7f4f6e6c792044414f2063616e2065786563757465000000000000000000000000600082015250565b6000613aa36014836131af565b9150613aae82613a6d565b602082019050919050565b60006020820190508181036000830152613ad281613a96565b9050919050565b7f5061757361626c653a206e6f7420706175736564000000000000000000000000600082015250565b6000613b0f6014836131af565b9150613b1a82613ad9565b602082019050919050565b60006020820190508181036000830152613b3e81613b02565b9050919050565b7f4e487b7100000000000000000000000000000000000000000000000000000000600052601260045260246000fd5b6000613b7f82612ebe565b9150613b8a83612ebe565b925082613b9a57613b99613b45565b5b828204905092915050565b6000613bb082612ebe565b9150613bbb83612ebe565b9250817fffffffffffffffffffffffffffffffffffffffffffffffffffffffffffffffff0483118215151615613bf457613bf3613298565b5b82820290509291505056fea2646970667358221220f0cfc8c128221b0bc6d1ae99df065e773f8fb2bc92bb5a9e2e7c8994c2a859c864736f6c634300080a0033",
  "immutableReferences": {},
  "source": "// SPDX-License-Identifier: MIT\npragma solidity ^0.8.0;\n\nimport \"./StakingRewardPool.sol\";\n\ncontract GourmetFoodPool is StakingRewardPool {\n  constructor(address _rewardToken, address _lpToken) StakingRewardPool(_rewardToken, _lpToken) {\n    rewardToken = IERC20(_rewardToken);\n  }\n}\n",
  "sourcePath": "/Users/chris/workspace/ratalert/ratalert-lp/contracts/GourmetFoodPool.sol",
  "compiler": {
    "name": "solc",
    "version": "0.8.10+commit.fc410830.Emscripten.clang"
  },
  "schemaVersion": "3.4.7",
  "updatedAt": "2022-06-07T08:26:50.169Z",
  "networkType": "ethereum",
  "devdoc": {
    "kind": "dev",
    "methods": {
      "owner()": {
        "details": "Returns the address of the current owner."
      },
      "paused()": {
        "details": "Returns true if the contract is paused, and false otherwise."
      },
      "renounceOwnership()": {
        "details": "Leaves the contract without owner. It will not be possible to call `onlyOwner` functions anymore. Can only be called by the current owner. NOTE: Renouncing ownership will leave the contract without an owner, thereby removing any functionality that is only available to the owner."
      },
      "transferOwnership(address)": {
        "details": "Transfers ownership of the contract to a new account (`newOwner`). Can only be called by the current owner."
      }
    },
    "version": 1
  },
  "userdoc": {
    "kind": "user",
    "methods": {
      "reset()": {
        "notice": "Reset user balances and stakes"
      }
    },
    "version": 1
  }
}