{
  "contractName": "StakingPool",
  "abi": [
    {
      "inputs": [
        {
          "internalType": "address",
          "name": "_rewardToken",
          "type": "address"
        },
        {
          "internalType": "address",
          "name": "_lpToken",
          "type": "address"
        }
      ],
      "stateMutability": "nonpayable",
      "type": "constructor"
    },
    {
      "anonymous": false,
      "inputs": [
        {
          "indexed": true,
          "internalType": "address",
          "name": "user",
          "type": "address"
        },
        {
          "indexed": false,
          "internalType": "uint256",
          "name": "amount",
          "type": "uint256"
        }
      ],
      "name": "Deposited",
      "type": "event"
    },
    {
      "anonymous": false,
      "inputs": [
        {
          "indexed": true,
          "internalType": "address",
          "name": "previousOwner",
          "type": "address"
        },
        {
          "indexed": true,
          "internalType": "address",
          "name": "newOwner",
          "type": "address"
        }
      ],
      "name": "OwnershipTransferred",
      "type": "event"
    },
    {
      "anonymous": false,
      "inputs": [
        {
          "indexed": false,
          "internalType": "address",
          "name": "account",
          "type": "address"
        }
      ],
      "name": "Paused",
      "type": "event"
    },
    {
      "anonymous": false,
      "inputs": [
        {
          "indexed": true,
          "internalType": "address",
          "name": "user",
          "type": "address"
        },
        {
          "indexed": false,
          "internalType": "uint256",
          "name": "amount",
          "type": "uint256"
        }
      ],
      "name": "Staked",
      "type": "event"
    },
    {
      "anonymous": false,
      "inputs": [
        {
          "indexed": true,
          "internalType": "address",
          "name": "user",
          "type": "address"
        },
        {
          "indexed": false,
          "internalType": "uint256",
          "name": "amount",
          "type": "uint256"
        }
      ],
      "name": "UnStaked",
      "type": "event"
    },
    {
      "anonymous": false,
      "inputs": [
        {
          "indexed": false,
          "internalType": "address",
          "name": "account",
          "type": "address"
        }
      ],
      "name": "Unpaused",
      "type": "event"
    },
    {
      "anonymous": false,
      "inputs": [
        {
          "indexed": true,
          "internalType": "address",
          "name": "user",
          "type": "address"
        },
        {
          "indexed": false,
          "internalType": "uint256",
          "name": "amount",
          "type": "uint256"
        }
      ],
      "name": "Withdrawn",
      "type": "event"
    },
    {
      "inputs": [
        {
          "internalType": "address",
          "name": "",
          "type": "address"
        }
      ],
      "name": "balances",
      "outputs": [
        {
          "internalType": "uint256",
          "name": "",
          "type": "uint256"
        }
      ],
      "stateMutability": "view",
      "type": "function"
    },
    {
      "inputs": [
        {
          "internalType": "uint256",
          "name": "amount",
          "type": "uint256"
        }
      ],
      "name": "deposit",
      "outputs": [],
      "stateMutability": "nonpayable",
      "type": "function"
    },
    {
      "inputs": [],
      "name": "getBalance",
      "outputs": [
        {
          "internalType": "uint256",
          "name": "",
          "type": "uint256"
        }
      ],
      "stateMutability": "view",
      "type": "function"
    },
    {
      "inputs": [],
      "name": "owner",
      "outputs": [
        {
          "internalType": "address",
          "name": "",
          "type": "address"
        }
      ],
      "stateMutability": "view",
      "type": "function"
    },
    {
      "inputs": [],
      "name": "paused",
      "outputs": [
        {
          "internalType": "bool",
          "name": "",
          "type": "bool"
        }
      ],
      "stateMutability": "view",
      "type": "function"
    },
    {
      "inputs": [],
      "name": "renounceOwnership",
      "outputs": [],
      "stateMutability": "nonpayable",
      "type": "function"
    },
    {
      "inputs": [
        {
          "internalType": "address",
          "name": "_dao",
          "type": "address"
        }
      ],
      "name": "setDao",
      "outputs": [],
      "stateMutability": "nonpayable",
      "type": "function"
    },
    {
      "inputs": [
        {
          "internalType": "uint256",
          "name": "",
          "type": "uint256"
        }
      ],
      "name": "stakers",
      "outputs": [
        {
          "internalType": "address",
          "name": "",
          "type": "address"
        }
      ],
      "stateMutability": "view",
      "type": "function"
    },
    {
      "inputs": [
        {
          "internalType": "address",
          "name": "",
          "type": "address"
        }
      ],
      "name": "stakes",
      "outputs": [
        {
          "internalType": "uint256",
          "name": "",
          "type": "uint256"
        }
      ],
      "stateMutability": "view",
      "type": "function"
    },
    {
      "inputs": [],
      "name": "totalStakes",
      "outputs": [
        {
          "internalType": "uint256",
          "name": "",
          "type": "uint256"
        }
      ],
      "stateMutability": "view",
      "type": "function"
    },
    {
      "inputs": [
        {
          "internalType": "address",
          "name": "newOwner",
          "type": "address"
        }
      ],
      "name": "transferOwnership",
      "outputs": [],
      "stateMutability": "nonpayable",
      "type": "function"
    },
    {
      "inputs": [
        {
          "internalType": "uint256",
          "name": "amount",
          "type": "uint256"
        }
      ],
      "name": "withdraw",
      "outputs": [],
      "stateMutability": "nonpayable",
      "type": "function"
    },
    {
      "inputs": [
        {
          "internalType": "uint256",
          "name": "amount",
          "type": "uint256"
        }
      ],
      "name": "startStake",
      "outputs": [],
      "stateMutability": "nonpayable",
      "type": "function"
    },
    {
      "inputs": [
        {
          "internalType": "uint256",
          "name": "amount",
          "type": "uint256"
        }
      ],
      "name": "endStake",
      "outputs": [],
      "stateMutability": "nonpayable",
      "type": "function"
    },
    {
      "inputs": [],
      "name": "getStakedBalance",
      "outputs": [
        {
          "internalType": "uint256",
          "name": "",
          "type": "uint256"
        }
      ],
      "stateMutability": "view",
      "type": "function"
    },
    {
      "inputs": [
        {
          "internalType": "uint256",
          "name": "amount",
          "type": "uint256"
        }
      ],
      "name": "depositAndStartStake",
      "outputs": [],
      "stateMutability": "nonpayable",
      "type": "function"
    },
    {
      "inputs": [
        {
          "internalType": "uint256",
          "name": "amount",
          "type": "uint256"
        }
      ],
      "name": "endStakeAndWithdraw",
      "outputs": [],
      "stateMutability": "nonpayable",
      "type": "function"
    },
    {
      "inputs": [],
      "name": "pause",
      "outputs": [],
      "stateMutability": "nonpayable",
      "type": "function"
    },
    {
      "inputs": [],
      "name": "unpause",
      "outputs": [],
      "stateMutability": "nonpayable",
      "type": "function"
    },
    {
      "inputs": [],
      "name": "reset",
      "outputs": [],
      "stateMutability": "nonpayable",
      "type": "function"
    }
  ],
  "bytecode": "0x60806040523480156200001157600080fd5b506040516200202f3803806200202f8339818101604052810190620000379190620001f3565b80620000586200004c620000bd60201b60201c565b620000c560201b60201c565b80600160006101000a81548173ffffffffffffffffffffffffffffffffffffffff021916908373ffffffffffffffffffffffffffffffffffffffff160217905550506000600560006101000a81548160ff02191690831515021790555050506200023a565b600033905090565b60008060009054906101000a900473ffffffffffffffffffffffffffffffffffffffff169050816000806101000a81548173ffffffffffffffffffffffffffffffffffffffff021916908373ffffffffffffffffffffffffffffffffffffffff1602179055508173ffffffffffffffffffffffffffffffffffffffff168173ffffffffffffffffffffffffffffffffffffffff167f8be0079c531659141344cd1fd0a4f28419497f9722a3daafe3b4186f6b6457e060405160405180910390a35050565b600080fd5b600073ffffffffffffffffffffffffffffffffffffffff82169050919050565b6000620001bb826200018e565b9050919050565b620001cd81620001ae565b8114620001d957600080fd5b50565b600081519050620001ed81620001c2565b92915050565b600080604083850312156200020d576200020c62000189565b5b60006200021d85828601620001dc565b92505060206200023085828601620001dc565b9150509250929050565b611de5806200024a6000396000f3fe608060405234801561001057600080fd5b506004361061012c5760003560e01c80638456cb59116100ad578063bf9befb111610071578063bf9befb1146102cf578063d826f88f146102ed578063d9c5fbed146102f7578063f2fde38b14610313578063fd5e6dd11461032f5761012c565b80638456cb59146102535780638da5cb5b1461025d578063aaf636401461027b578063b51bd40f14610297578063b6b55f25146102b35761012c565b80633f4ba83a116100f45780633f4ba83a146101e75780635c975abb146101f15780636637b8821461020f578063715018a61461022b57806376965867146102355761012c565b80630cbe28d61461013157806312065fe01461014d57806316934fc41461016b57806327e235e31461019b5780632e1a7d4d146101cb575b600080fd5b61014b60048036038101906101469190611682565b61035f565b005b6101556105bf565b60405161016291906116be565b60405180910390f35b61018560048036038101906101809190611737565b610606565b60405161019291906116be565b60405180910390f35b6101b560048036038101906101b09190611737565b61061e565b6040516101c291906116be565b60405180910390f35b6101e560048036038101906101e09190611682565b610636565b005b6101ef61083f565b005b6101f9610851565b604051610206919061177f565b60405180910390f35b61022960048036038101906102249190611737565b610868565b005b610233610928565b005b61023d6109b0565b60405161024a91906116be565b60405180910390f35b61025b6109f7565b005b610265610a09565b60405161027291906117a9565b60405180910390f35b61029560048036038101906102909190611682565b610a32565b005b6102b160048036038101906102ac9190611682565b610a8f565b005b6102cd60048036038101906102c89190611682565b610cea565b005b6102d76110a3565b6040516102e491906116be565b60405180910390f35b6102f56110a9565b005b610311600480360381019061030c9190611682565b6111e5565b005b61032d60048036038101906103289190611737565b611242565b005b61034960048036038101906103449190611682565b611339565b60405161035691906117a9565b60405180910390f35b610367610851565b156103a7576040517f08c379a000000000000000000000000000000000000000000000000000000000815260040161039e90611821565b60405180910390fd5b80600760003373ffffffffffffffffffffffffffffffffffffffff1673ffffffffffffffffffffffffffffffffffffffff168152602001908152602001600020541015610429576040517f08c379a00000000000000000000000000000000000000000000000000000000081526004016104209061188d565b60405180910390fd5b61047b81600260003373ffffffffffffffffffffffffffffffffffffffff1673ffffffffffffffffffffffffffffffffffffffff1681526020019081526020016000205461137890919063ffffffff16565b600260003373ffffffffffffffffffffffffffffffffffffffff1673ffffffffffffffffffffffffffffffffffffffff1681526020019081526020016000208190555061051081600760003373ffffffffffffffffffffffffffffffffffffffff1673ffffffffffffffffffffffffffffffffffffffff1681526020019081526020016000205461138e90919063ffffffff16565b600760003373ffffffffffffffffffffffffffffffffffffffff1673ffffffffffffffffffffffffffffffffffffffff168152602001908152602001600020819055506105688160085461138e90919063ffffffff16565b6008819055503373ffffffffffffffffffffffffffffffffffffffff167f79d3df6837cc49ff0e09fd3258e6e45594e0703445bb06825e9d75156eaee8f0826040516105b491906116be565b60405180910390a250565b6000600260003373ffffffffffffffffffffffffffffffffffffffff1673ffffffffffffffffffffffffffffffffffffffff16815260200190815260200160002054905090565b60076020528060005260406000206000915090505481565b60026020528060005260406000206000915090505481565b80600260003373ffffffffffffffffffffffffffffffffffffffff1673ffffffffffffffffffffffffffffffffffffffff1681526020019081526020016000205410156106b8576040517f08c379a00000000000000000000000000000000000000000000000000000000081526004016106af9061188d565b60405180910390fd5b61070a81600260003373ffffffffffffffffffffffffffffffffffffffff1673ffffffffffffffffffffffffffffffffffffffff1681526020019081526020016000205461138e90919063ffffffff16565b600260003373ffffffffffffffffffffffffffffffffffffffff1673ffffffffffffffffffffffffffffffffffffffff16815260200190815260200160002081905550600160009054906101000a900473ffffffffffffffffffffffffffffffffffffffff1673ffffffffffffffffffffffffffffffffffffffff1663a9059cbb33836040518363ffffffff1660e01b81526004016107aa9291906118ad565b6020604051808303816000875af11580156107c9573d6000803e3d6000fd5b505050506040513d601f19601f820116820180604052508101906107ed9190611902565b503373ffffffffffffffffffffffffffffffffffffffff167f7084f5476618d8e60b11ef0d7d3f06914655adb8793e28ff7f018d4c76d505d58260405161083491906116be565b60405180910390a250565b6108476113a4565b61084f611436565b565b6000600560009054906101000a900460ff16905090565b6108706114d8565b73ffffffffffffffffffffffffffffffffffffffff1661088e610a09565b73ffffffffffffffffffffffffffffffffffffffff16146108e4576040517f08c379a00000000000000000000000000000000000000000000000000000000081526004016108db9061197b565b60405180910390fd5b80600560016101000a81548173ffffffffffffffffffffffffffffffffffffffff021916908373ffffffffffffffffffffffffffffffffffffffff16021790555050565b6109306114d8565b73ffffffffffffffffffffffffffffffffffffffff1661094e610a09565b73ffffffffffffffffffffffffffffffffffffffff16146109a4576040517f08c379a000000000000000000000000000000000000000000000000000000000815260040161099b9061197b565b60405180910390fd5b6109ae60006114e0565b565b6000600760003373ffffffffffffffffffffffffffffffffffffffff1673ffffffffffffffffffffffffffffffffffffffff16815260200190815260200160002054905090565b6109ff6113a4565b610a076115a4565b565b60008060009054906101000a900473ffffffffffffffffffffffffffffffffffffffff16905090565b610a3a610851565b15610a7a576040517f08c379a0000000000000000000000000000000000000000000000000000000008152600401610a7190611821565b60405180910390fd5b610a838161035f565b610a8c81610636565b50565b60008111610ad2576040517f08c379a0000000000000000000000000000000000000000000000000000000008152600401610ac9906119e7565b60405180910390fd5b80600260003373ffffffffffffffffffffffffffffffffffffffff1673ffffffffffffffffffffffffffffffffffffffff168152602001908152602001600020541015610b54576040517f08c379a0000000000000000000000000000000000000000000000000000000008152600401610b4b9061188d565b60405180910390fd5b610ba681600260003373ffffffffffffffffffffffffffffffffffffffff1673ffffffffffffffffffffffffffffffffffffffff1681526020019081526020016000205461138e90919063ffffffff16565b600260003373ffffffffffffffffffffffffffffffffffffffff1673ffffffffffffffffffffffffffffffffffffffff16815260200190815260200160002081905550610c3b81600760003373ffffffffffffffffffffffffffffffffffffffff1673ffffffffffffffffffffffffffffffffffffffff1681526020019081526020016000205461137890919063ffffffff16565b600760003373ffffffffffffffffffffffffffffffffffffffff1673ffffffffffffffffffffffffffffffffffffffff16815260200190815260200160002081905550610c938160085461137890919063ffffffff16565b6008819055503373ffffffffffffffffffffffffffffffffffffffff167f9e71bc8eea02a63969f509818f2dafb9254532904319f9dbda79b67bd34a5f3d82604051610cdf91906116be565b60405180910390a250565b60008111610d2d576040517f08c379a0000000000000000000000000000000000000000000000000000000008152600401610d24906119e7565b60405180910390fd5b80600160009054906101000a900473ffffffffffffffffffffffffffffffffffffffff1673ffffffffffffffffffffffffffffffffffffffff1663dd62ed3e33306040518363ffffffff1660e01b8152600401610d8b929190611a07565b602060405180830381865afa158015610da8573d6000803e3d6000fd5b505050506040513d601f19601f82011682018060405250810190610dcc9190611a45565b1015610e0d576040517f08c379a0000000000000000000000000000000000000000000000000000000008152600401610e0490611abe565b60405180910390fd5b610e5f81600260003373ffffffffffffffffffffffffffffffffffffffff1673ffffffffffffffffffffffffffffffffffffffff1681526020019081526020016000205461137890919063ffffffff16565b600260003373ffffffffffffffffffffffffffffffffffffffff1673ffffffffffffffffffffffffffffffffffffffff16815260200190815260200160002081905550600460003373ffffffffffffffffffffffffffffffffffffffff1673ffffffffffffffffffffffffffffffffffffffff16815260200190815260200160002060009054906101000a900460ff16610faf576001600460003373ffffffffffffffffffffffffffffffffffffffff1673ffffffffffffffffffffffffffffffffffffffff16815260200190815260200160002060006101000a81548160ff0219169083151502179055506003339080600181540180825580915050600190039060005260206000200160009091909190916101000a81548173ffffffffffffffffffffffffffffffffffffffff021916908373ffffffffffffffffffffffffffffffffffffffff1602179055505b600160009054906101000a900473ffffffffffffffffffffffffffffffffffffffff1673ffffffffffffffffffffffffffffffffffffffff166323b872dd3330846040518463ffffffff1660e01b815260040161100e93929190611ade565b6020604051808303816000875af115801561102d573d6000803e3d6000fd5b505050506040513d601f19601f820116820180604052508101906110519190611902565b503373ffffffffffffffffffffffffffffffffffffffff167f2da466a7b24304f47e87fa2e1e5a81b9831ce54fec19055ce277ca2f39ba42c48260405161109891906116be565b60405180910390a250565b60085481565b6110b16113a4565b60005b6003805490508110156111da57600060026000600384815481106110db576110da611b15565b5b9060005260206000200160009054906101000a900473ffffffffffffffffffffffffffffffffffffffff1673ffffffffffffffffffffffffffffffffffffffff1673ffffffffffffffffffffffffffffffffffffffff168152602001908152602001600020819055506000600760006003848154811061115e5761115d611b15565b5b9060005260206000200160009054906101000a900473ffffffffffffffffffffffffffffffffffffffff1673ffffffffffffffffffffffffffffffffffffffff1673ffffffffffffffffffffffffffffffffffffffff1681526020019081526020016000208190555080806111d290611b73565b9150506110b4565b506000600881905550565b6111ed610851565b1561122d576040517f08c379a000000000000000000000000000000000000000000000000000000000815260040161122490611821565b60405180910390fd5b61123681610cea565b61123f81610a8f565b50565b61124a6114d8565b73ffffffffffffffffffffffffffffffffffffffff16611268610a09565b73ffffffffffffffffffffffffffffffffffffffff16146112be576040517f08c379a00000000000000000000000000000000000000000000000000000000081526004016112b59061197b565b60405180910390fd5b600073ffffffffffffffffffffffffffffffffffffffff168173ffffffffffffffffffffffffffffffffffffffff160361132d576040517f08c379a000000000000000000000000000000000000000000000000000000000815260040161132490611c2d565b60405180910390fd5b611336816114e0565b50565b6006818154811061134957600080fd5b906000526020600020016000915054906101000a900473ffffffffffffffffffffffffffffffffffffffff1681565b600081836113869190611c4d565b905092915050565b6000818361139c9190611ca3565b905092915050565b600560019054906101000a900473ffffffffffffffffffffffffffffffffffffffff1673ffffffffffffffffffffffffffffffffffffffff163373ffffffffffffffffffffffffffffffffffffffff1614611434576040517f08c379a000000000000000000000000000000000000000000000000000000000815260040161142b90611d23565b60405180910390fd5b565b61143e610851565b61147d576040517f08c379a000000000000000000000000000000000000000000000000000000000815260040161147490611d8f565b60405180910390fd5b6000600560006101000a81548160ff0219169083151502179055507f5db9ee0a495bf2e6ff9c91a7834c1ba4fdd244a5e8aa4e537bd38aeae4b073aa6114c16114d8565b6040516114ce91906117a9565b60405180910390a1565b600033905090565b60008060009054906101000a900473ffffffffffffffffffffffffffffffffffffffff169050816000806101000a81548173ffffffffffffffffffffffffffffffffffffffff021916908373ffffffffffffffffffffffffffffffffffffffff1602179055508173ffffffffffffffffffffffffffffffffffffffff168173ffffffffffffffffffffffffffffffffffffffff167f8be0079c531659141344cd1fd0a4f28419497f9722a3daafe3b4186f6b6457e060405160405180910390a35050565b6115ac610851565b156115ec576040517f08c379a00000000000000000000000000000000000000000000000000000000081526004016115e390611821565b60405180910390fd5b6001600560006101000a81548160ff0219169083151502179055507f62e78cea01bee320cd4e420270b5ea74000d11b0c9f74754ebdbfc544b05a2586116306114d8565b60405161163d91906117a9565b60405180910390a1565b600080fd5b6000819050919050565b61165f8161164c565b811461166a57600080fd5b50565b60008135905061167c81611656565b92915050565b60006020828403121561169857611697611647565b5b60006116a68482850161166d565b91505092915050565b6116b88161164c565b82525050565b60006020820190506116d360008301846116af565b92915050565b600073ffffffffffffffffffffffffffffffffffffffff82169050919050565b6000611704826116d9565b9050919050565b611714816116f9565b811461171f57600080fd5b50565b6000813590506117318161170b565b92915050565b60006020828403121561174d5761174c611647565b5b600061175b84828501611722565b91505092915050565b60008115159050919050565b61177981611764565b82525050565b60006020820190506117946000830184611770565b92915050565b6117a3816116f9565b82525050565b60006020820190506117be600083018461179a565b92915050565b600082825260208201905092915050565b7f5061757361626c653a2070617573656400000000000000000000000000000000600082015250565b600061180b6010836117c4565b9150611816826117d5565b602082019050919050565b6000602082019050818103600083015261183a816117fe565b9050919050565b7f496e73756666696369656e7420746f6b656e2062616c616e6365000000000000600082015250565b6000611877601a836117c4565b915061188282611841565b602082019050919050565b600060208201905081810360008301526118a68161186a565b9050919050565b60006040820190506118c2600083018561179a565b6118cf60208301846116af565b9392505050565b6118df81611764565b81146118ea57600080fd5b50565b6000815190506118fc816118d6565b92915050565b60006020828403121561191857611917611647565b5b6000611926848285016118ed565b91505092915050565b7f4f776e61626c653a2063616c6c6572206973206e6f7420746865206f776e6572600082015250565b60006119656020836117c4565b91506119708261192f565b602082019050919050565b6000602082019050818103600083015261199481611958565b9050919050565b7f496e76616c696420616d6f756e74000000000000000000000000000000000000600082015250565b60006119d1600e836117c4565b91506119dc8261199b565b602082019050919050565b60006020820190508181036000830152611a00816119c4565b9050919050565b6000604082019050611a1c600083018561179a565b611a29602083018461179a565b9392505050565b600081519050611a3f81611656565b92915050565b600060208284031215611a5b57611a5a611647565b5b6000611a6984828501611a30565b91505092915050565b7f496e73756666696369656e7420616c6c6f77616e636500000000000000000000600082015250565b6000611aa86016836117c4565b9150611ab382611a72565b602082019050919050565b60006020820190508181036000830152611ad781611a9b565b9050919050565b6000606082019050611af3600083018661179a565b611b00602083018561179a565b611b0d60408301846116af565b949350505050565b7f4e487b7100000000000000000000000000000000000000000000000000000000600052603260045260246000fd5b7f4e487b7100000000000000000000000000000000000000000000000000000000600052601160045260246000fd5b6000611b7e8261164c565b91507fffffffffffffffffffffffffffffffffffffffffffffffffffffffffffffffff8203611bb057611baf611b44565b5b600182019050919050565b7f4f776e61626c653a206e6577206f776e657220697320746865207a65726f206160008201527f6464726573730000000000000000000000000000000000000000000000000000602082015250565b6000611c176026836117c4565b9150611c2282611bbb565b604082019050919050565b60006020820190508181036000830152611c4681611c0a565b9050919050565b6000611c588261164c565b9150611c638361164c565b9250827fffffffffffffffffffffffffffffffffffffffffffffffffffffffffffffffff03821115611c9857611c97611b44565b5b828201905092915050565b6000611cae8261164c565b9150611cb98361164c565b925082821015611ccc57611ccb611b44565b5b828203905092915050565b7f4f6e6c792044414f2063616e2065786563757465000000000000000000000000600082015250565b6000611d0d6014836117c4565b9150611d1882611cd7565b602082019050919050565b60006020820190508181036000830152611d3c81611d00565b9050919050565b7f5061757361626c653a206e6f7420706175736564000000000000000000000000600082015250565b6000611d796014836117c4565b9150611d8482611d43565b602082019050919050565b60006020820190508181036000830152611da881611d6c565b905091905056fea2646970667358221220b3116ac490b667c2b28934f741464d76ed97e2a8cefe80654cc896bfe067fad764736f6c634300080d0033",
  "immutableReferences": {},
  "source": "// SPDX-License-Identifier: MIT\npragma solidity ^0.8.0;\npragma abicoder v2;\n\nimport \"@openzeppelin/contracts/security/Pausable.sol\";\nimport \"./Wallet.sol\";\nimport \"./DOWable.sol\";\n\ncontract StakingPool is Wallet, Pausable, DOWable {\n  using SafeMath for uint256;\n\n  event Staked(address indexed user, uint amount);\n  event UnStaked(address indexed user, uint256 amount);\n\n  address[] public stakers; // addresses that have active stakes\n  mapping(address => uint) public stakes;\n  uint public totalStakes;\n\n  constructor(address _rewardToken, address _lpToken) Wallet(_lpToken) {}\n\n  function startStake(uint amount) virtual public {\n    require(amount > 0, \"Invalid amount\");\n    require(balances[msg.sender] >= amount, \"Insufficient token balance\");\n\n    balances[msg.sender] = balances[msg.sender].sub(amount);\n    stakes[msg.sender] = stakes[msg.sender].add(amount);\n    totalStakes = totalStakes.add(amount);\n\n    emit Staked(msg.sender, amount);\n  }\n\n\n  function endStake(uint amount) virtual public whenNotPaused {\n    require(stakes[msg.sender] >= amount, \"Insufficient token balance\");\n\n    balances[msg.sender] = balances[msg.sender].add(amount);\n    stakes[msg.sender] = stakes[msg.sender].sub(amount);\n    totalStakes = totalStakes.sub(amount);\n\n    emit UnStaked(msg.sender, amount);\n  }\n\n  function getStakedBalance() public view returns (uint) {\n    return stakes[msg.sender];\n  }\n\n  function depositAndStartStake(uint256 amount) public whenNotPaused {\n    deposit(amount);\n    startStake(amount);\n  }\n\n  function endStakeAndWithdraw(uint amount) public whenNotPaused {\n    endStake(amount);\n    withdraw(amount);\n  }\n\n  function pause() external onlyDao {\n    _pause();\n  }\n\n  function unpause() external onlyDao {\n    _unpause();\n  }\n\n  /**\n   * Reset user balances and stakes\n   */\n  function reset() public virtual onlyDao {\n    for (uint i = 0; i < usersArray.length; i++) {\n      balances[usersArray[i]] = 0;\n      stakes[usersArray[i]] = 0;\n    }\n    totalStakes = 0;\n  }\n}\n",
  "sourcePath": "/Users/chris/workspace/ratalert/ratalert-lp/contracts/StakingPool.sol",
  "compiler": {
    "name": "solc",
    "version": "0.8.13+commit.abaa5c0e.Emscripten.clang"
  },
  "schemaVersion": "3.4.7",
  "updatedAt": "2022-05-22T13:52:00.908Z",
  "networkType": "ethereum",
  "devdoc": {
    "kind": "dev",
    "methods": {
      "owner()": {
        "details": "Returns the address of the current owner."
      },
      "paused()": {
        "details": "Returns true if the contract is paused, and false otherwise."
      },
      "renounceOwnership()": {
        "details": "Leaves the contract without owner. It will not be possible to call `onlyOwner` functions anymore. Can only be called by the current owner. NOTE: Renouncing ownership will leave the contract without an owner, thereby removing any functionality that is only available to the owner."
      },
      "transferOwnership(address)": {
        "details": "Transfers ownership of the contract to a new account (`newOwner`). Can only be called by the current owner."
      }
    },
    "version": 1
  },
  "userdoc": {
    "kind": "user",
    "methods": {
      "reset()": {
        "notice": "Reset user balances and stakes"
      }
    },
    "version": 1
  }
}